{
  "_format": "hh-sol-artifact-1",
  "contractName": "Allin1Bounty",
  "sourceName": "contracts/Bounty.sol",
  "abi": [
    {
      "inputs": [
        {
          "internalType": "address",
          "name": "_usdt",
          "type": "address"
        }
      ],
      "stateMutability": "nonpayable",
      "type": "constructor"
    },
    {
      "anonymous": false,
      "inputs": [
        {
          "indexed": true,
          "internalType": "uint256",
          "name": "bountyId",
          "type": "uint256"
        },
        {
          "indexed": true,
          "internalType": "address",
          "name": "creator",
          "type": "address"
        },
        {
          "indexed": false,
          "internalType": "uint256",
          "name": "penaltyAmount",
          "type": "uint256"
        },
        {
          "indexed": false,
          "internalType": "uint256",
          "name": "refundAmount",
          "type": "uint256"
        }
      ],
      "name": "BountyCancelled",
      "type": "event"
    },
    {
      "anonymous": false,
      "inputs": [
        {
          "indexed": true,
          "internalType": "uint256",
          "name": "bountyId",
          "type": "uint256"
        },
        {
          "indexed": true,
          "internalType": "address",
          "name": "creator",
          "type": "address"
        },
        {
          "indexed": false,
          "internalType": "string",
          "name": "name",
          "type": "string"
        },
        {
          "indexed": false,
          "internalType": "enum Allin1Bounty.Category",
          "name": "category",
          "type": "uint8"
        },
        {
          "indexed": false,
          "internalType": "uint256",
          "name": "totalReward",
          "type": "uint256"
        },
        {
          "indexed": false,
          "internalType": "uint256",
          "name": "deadline",
          "type": "uint256"
        }
      ],
      "name": "BountyCreated",
      "type": "event"
    },
    {
      "anonymous": false,
      "inputs": [
        {
          "indexed": true,
          "internalType": "address",
          "name": "previousOwner",
          "type": "address"
        },
        {
          "indexed": true,
          "internalType": "address",
          "name": "newOwner",
          "type": "address"
        }
      ],
      "name": "OwnershipTransferred",
      "type": "event"
    },
    {
      "anonymous": false,
      "inputs": [
        {
          "indexed": true,
          "internalType": "uint256",
          "name": "bountyId",
          "type": "uint256"
        },
        {
          "indexed": true,
          "internalType": "address",
          "name": "recipient",
          "type": "address"
        },
        {
          "indexed": false,
          "internalType": "uint256",
          "name": "amount",
          "type": "uint256"
        }
      ],
      "name": "PenaltyDistributed",
      "type": "event"
    },
    {
      "anonymous": false,
      "inputs": [
        {
          "indexed": true,
          "internalType": "uint256",
          "name": "bountyId",
          "type": "uint256"
        },
        {
          "indexed": true,
          "internalType": "address",
          "name": "submitter",
          "type": "address"
        },
        {
          "indexed": false,
          "internalType": "string",
          "name": "mainUri",
          "type": "string"
        },
        {
          "indexed": false,
          "internalType": "uint256",
          "name": "timestamp",
          "type": "uint256"
        }
      ],
      "name": "SubmissionMade",
      "type": "event"
    },
    {
      "anonymous": false,
      "inputs": [
        {
          "indexed": true,
          "internalType": "uint256",
          "name": "bountyId",
          "type": "uint256"
        },
        {
          "indexed": true,
          "internalType": "address",
          "name": "creator",
          "type": "address"
        },
        {
          "components": [
            {
              "internalType": "address",
              "name": "recipient",
              "type": "address"
            },
            {
              "internalType": "uint256",
              "name": "prize",
              "type": "uint256"
            }
          ],
          "indexed": false,
          "internalType": "struct Allin1Bounty.Winner[]",
          "name": "winners",
          "type": "tuple[]"
        },
        {
          "indexed": false,
          "internalType": "uint256",
          "name": "totalDistributed",
          "type": "uint256"
        }
      ],
      "name": "WinnersSelected",
      "type": "event"
    },
    {
      "inputs": [],
      "name": "MAX_PENALTY_PERCENTAGE",
      "outputs": [
        {
          "internalType": "uint256",
          "name": "",
          "type": "uint256"
        }
      ],
      "stateMutability": "view",
      "type": "function"
    },
    {
      "inputs": [
        {
          "internalType": "uint256",
          "name": "",
          "type": "uint256"
        }
      ],
      "name": "bounties",
      "outputs": [
        {
          "internalType": "uint256",
          "name": "id",
          "type": "uint256"
        },
        {
          "internalType": "address",
          "name": "creator",
          "type": "address"
        },
        {
          "internalType": "string",
          "name": "name",
          "type": "string"
        },
        {
          "internalType": "string",
          "name": "description",
          "type": "string"
        },
        {
          "internalType": "enum Allin1Bounty.Category",
          "name": "category",
          "type": "uint8"
        },
        {
          "internalType": "uint256",
          "name": "deadline",
          "type": "uint256"
        },
        {
          "internalType": "uint256",
          "name": "totalReward",
          "type": "uint256"
        },
        {
          "internalType": "enum Allin1Bounty.BountyStatus",
          "name": "status",
          "type": "uint8"
        },
        {
          "internalType": "uint256",
          "name": "submissionCount",
          "type": "uint256"
        },
        {
          "internalType": "uint256",
          "name": "createdAt",
          "type": "uint256"
        }
      ],
      "stateMutability": "view",
      "type": "function"
    },
    {
      "inputs": [
        {
          "internalType": "uint256",
          "name": "",
          "type": "uint256"
        },
        {
          "internalType": "uint256",
          "name": "",
          "type": "uint256"
        }
      ],
      "name": "bountySubmissions",
      "outputs": [
        {
          "internalType": "address",
          "name": "submitter",
          "type": "address"
        },
        {
          "internalType": "string",
          "name": "mainUri",
          "type": "string"
        },
        {
          "internalType": "uint256",
          "name": "timestamp",
          "type": "uint256"
        }
      ],
      "stateMutability": "view",
      "type": "function"
    },
    {
      "inputs": [
        {
          "internalType": "uint256",
          "name": "bountyId",
          "type": "uint256"
        }
      ],
      "name": "calculatePenalty",
      "outputs": [
        {
          "internalType": "uint256",
          "name": "",
          "type": "uint256"
        }
      ],
      "stateMutability": "view",
      "type": "function"
    },
    {
      "inputs": [
        {
          "internalType": "uint256",
          "name": "bountyId",
          "type": "uint256"
        }
      ],
      "name": "cancelBounty",
      "outputs": [],
      "stateMutability": "nonpayable",
      "type": "function"
    },
    {
      "inputs": [
        {
          "internalType": "string",
          "name": "name",
          "type": "string"
        },
        {
          "internalType": "string",
          "name": "description",
          "type": "string"
        },
        {
          "internalType": "enum Allin1Bounty.Category",
          "name": "category",
          "type": "uint8"
        },
        {
          "internalType": "uint256",
          "name": "deadline",
          "type": "uint256"
        },
        {
          "internalType": "uint256",
          "name": "totalReward",
          "type": "uint256"
        }
      ],
      "name": "createBounty",
      "outputs": [
        {
          "internalType": "uint256",
          "name": "",
          "type": "uint256"
        }
      ],
      "stateMutability": "nonpayable",
      "type": "function"
    },
    {
      "inputs": [],
      "name": "emergencyPause",
      "outputs": [],
      "stateMutability": "nonpayable",
      "type": "function"
    },
    {
      "inputs": [
        {
          "internalType": "address",
          "name": "token",
          "type": "address"
        },
        {
          "internalType": "uint256",
          "name": "amount",
          "type": "uint256"
        }
      ],
      "name": "emergencyWithdraw",
      "outputs": [],
      "stateMutability": "nonpayable",
      "type": "function"
    },
    {
      "inputs": [
        {
          "internalType": "uint256",
          "name": "bountyId",
          "type": "uint256"
        }
      ],
      "name": "getBounty",
      "outputs": [
        {
          "components": [
            {
              "internalType": "uint256",
              "name": "id",
              "type": "uint256"
            },
            {
              "internalType": "address",
              "name": "creator",
              "type": "address"
            },
            {
              "internalType": "string",
              "name": "name",
              "type": "string"
            },
            {
              "internalType": "string",
              "name": "description",
              "type": "string"
            },
            {
              "internalType": "enum Allin1Bounty.Category",
              "name": "category",
              "type": "uint8"
            },
            {
              "internalType": "uint256",
              "name": "deadline",
              "type": "uint256"
            },
            {
              "internalType": "uint256",
              "name": "totalReward",
              "type": "uint256"
            },
            {
              "internalType": "enum Allin1Bounty.BountyStatus",
              "name": "status",
              "type": "uint8"
            },
            {
              "internalType": "uint256",
              "name": "submissionCount",
              "type": "uint256"
            },
            {
              "components": [
                {
                  "internalType": "address",
                  "name": "recipient",
                  "type": "address"
                },
                {
                  "internalType": "uint256",
                  "name": "prize",
                  "type": "uint256"
                }
              ],
              "internalType": "struct Allin1Bounty.Winner[]",
              "name": "winners",
              "type": "tuple[]"
            },
            {
              "internalType": "uint256",
              "name": "createdAt",
              "type": "uint256"
            }
          ],
          "internalType": "struct Allin1Bounty.Bounty",
          "name": "",
          "type": "tuple"
        }
      ],
      "stateMutability": "view",
      "type": "function"
    },
    {
      "inputs": [
        {
          "internalType": "uint256",
          "name": "bountyId",
          "type": "uint256"
        }
      ],
      "name": "getBountySubmissions",
      "outputs": [
        {
          "components": [
            {
              "internalType": "address",
              "name": "submitter",
              "type": "address"
            },
            {
              "internalType": "string",
              "name": "mainUri",
              "type": "string"
            },
            {
              "internalType": "string[]",
              "name": "evidenceUris",
              "type": "string[]"
            },
            {
              "internalType": "uint256",
              "name": "timestamp",
              "type": "uint256"
            }
          ],
          "internalType": "struct Allin1Bounty.Submission[]",
          "name": "",
          "type": "tuple[]"
        }
      ],
      "stateMutability": "view",
      "type": "function"
    },
    {
      "inputs": [
        {
          "internalType": "uint256",
          "name": "bountyId",
          "type": "uint256"
        }
      ],
      "name": "getBountyWinners",
      "outputs": [
        {
          "components": [
            {
              "internalType": "address",
              "name": "recipient",
              "type": "address"
            },
            {
              "internalType": "uint256",
              "name": "prize",
              "type": "uint256"
            }
          ],
          "internalType": "struct Allin1Bounty.Winner[]",
          "name": "",
          "type": "tuple[]"
        }
      ],
      "stateMutability": "view",
      "type": "function"
    },
    {
      "inputs": [
        {
          "internalType": "address",
          "name": "user",
          "type": "address"
        }
      ],
      "name": "getUserBounties",
      "outputs": [
        {
          "internalType": "uint256[]",
          "name": "",
          "type": "uint256[]"
        }
      ],
      "stateMutability": "view",
      "type": "function"
    },
    {
      "inputs": [
        {
          "internalType": "address",
          "name": "user",
          "type": "address"
        }
      ],
      "name": "getUserSubmissions",
      "outputs": [
        {
          "internalType": "uint256[]",
          "name": "",
          "type": "uint256[]"
        }
      ],
      "stateMutability": "view",
      "type": "function"
    },
    {
      "inputs": [
        {
          "internalType": "uint256",
          "name": "",
          "type": "uint256"
        },
        {
          "internalType": "address",
          "name": "",
          "type": "address"
        }
      ],
      "name": "hasSubmitted",
      "outputs": [
        {
          "internalType": "bool",
          "name": "",
          "type": "bool"
        }
      ],
      "stateMutability": "view",
      "type": "function"
    },
    {
      "inputs": [
        {
          "internalType": "uint256",
          "name": "bountyId",
          "type": "uint256"
        },
        {
          "internalType": "address",
          "name": "user",
          "type": "address"
        }
      ],
      "name": "hasUserSubmitted",
      "outputs": [
        {
          "internalType": "bool",
          "name": "",
          "type": "bool"
        }
      ],
      "stateMutability": "view",
      "type": "function"
    },
    {
      "inputs": [],
      "name": "nextBountyId",
      "outputs": [
        {
          "internalType": "uint256",
          "name": "",
          "type": "uint256"
        }
      ],
      "stateMutability": "view",
      "type": "function"
    },
    {
      "inputs": [],
      "name": "owner",
      "outputs": [
        {
          "internalType": "address",
          "name": "",
          "type": "address"
        }
      ],
      "stateMutability": "view",
      "type": "function"
    },
    {
      "inputs": [],
      "name": "renounceOwnership",
      "outputs": [],
      "stateMutability": "nonpayable",
      "type": "function"
    },
    {
      "inputs": [
        {
          "internalType": "uint256",
          "name": "bountyId",
          "type": "uint256"
        },
        {
          "components": [
            {
              "internalType": "address",
              "name": "recipient",
              "type": "address"
            },
            {
              "internalType": "uint256",
              "name": "prize",
              "type": "uint256"
            }
          ],
          "internalType": "struct Allin1Bounty.Winner[]",
          "name": "winners",
          "type": "tuple[]"
        }
      ],
      "name": "selectWinners",
      "outputs": [],
      "stateMutability": "nonpayable",
      "type": "function"
    },
    {
      "inputs": [
        {
          "internalType": "uint256",
          "name": "bountyId",
          "type": "uint256"
        },
        {
          "internalType": "string",
          "name": "mainUri",
          "type": "string"
        },
        {
          "internalType": "string[]",
          "name": "evidenceUris",
          "type": "string[]"
        }
      ],
      "name": "submitToBounty",
      "outputs": [],
      "stateMutability": "nonpayable",
      "type": "function"
    },
    {
      "inputs": [
        {
          "internalType": "address",
          "name": "newOwner",
          "type": "address"
        }
      ],
      "name": "transferOwnership",
      "outputs": [],
      "stateMutability": "nonpayable",
      "type": "function"
    },
    {
      "inputs": [],
      "name": "usdtToken",
      "outputs": [
        {
          "internalType": "contract IERC20",
          "name": "",
          "type": "address"
        }
      ],
      "stateMutability": "view",
      "type": "function"
    },
    {
      "inputs": [
        {
          "internalType": "address",
          "name": "",
          "type": "address"
        },
        {
          "internalType": "uint256",
          "name": "",
          "type": "uint256"
        }
      ],
      "name": "userBounties",
      "outputs": [
        {
          "internalType": "uint256",
          "name": "",
          "type": "uint256"
        }
      ],
      "stateMutability": "view",
      "type": "function"
    },
    {
      "inputs": [
        {
          "internalType": "address",
          "name": "",
          "type": "address"
        },
        {
          "internalType": "uint256",
          "name": "",
          "type": "uint256"
        }
      ],
      "name": "userSubmissions",
      "outputs": [
        {
          "internalType": "uint256",
          "name": "",
          "type": "uint256"
        }
      ],
      "stateMutability": "view",
      "type": "function"
    }
  ],
  "bytecode": "0x60a060405260016002553480156200001657600080fd5b5060405162002ee338038062002ee38339810160408190526200003991620000ad565b600160005562000049336200005b565b6001600160a01b0316608052620000df565b600180546001600160a01b038381166001600160a01b0319831681179093556040519116919082907f8be0079c531659141344cd1fd0a4f28419497f9722a3daafe3b4186f6b6457e090600090a35050565b600060208284031215620000c057600080fd5b81516001600160a01b0381168114620000d857600080fd5b9392505050565b608051612dc56200011e600039600081816102ec015281816105800152818161100101528181611186015281816116c501526120250152612dc56000f3fe608060405234801561001057600080fd5b50600436106101585760003560e01c8063a006dd7e116100c3578063dc2f87441161007c578063dc2f87441461032e578063e5e5dff114610357578063ee8c4bbf1461036a578063f2fde38b1461038a578063f3d46ae41461039d578063fd14fad4146103b057600080fd5b8063a006dd7e1461028b578063a57d38061461029e578063a72ca423146102cc578063a7b8614d146102d4578063a98ad46c146102e7578063b6cccdb81461030e57600080fd5b80636591a185116101155780636591a185146101f8578063715018a6146102185780638da5cb5b1461022057806392af09621461024557806395ccea67146102655780639b7e01801461027857600080fd5b80630591a7a71461015d5780632b9234b914610185578063343bf580146101a6578063429e2398146101b95780634ecce451146101db57806351858e27146101ee575b600080fd5b61017061016b366004612312565b6103b9565b60405190151581526020015b60405180910390f35b61019861019336600461233e565b6103e6565b60405190815260200161017c565b6101986101b4366004612448565b610417565b6101cc6101c73660046124d4565b61075a565b60405161017c9392919061253c565b6101986101e9366004612570565b610830565b6101f661083b565b005b61020b610206366004612589565b610845565b60405161017c91906125ab565b6101f66108b1565b6001546001600160a01b03165b6040516001600160a01b03909116815260200161017c565b610258610253366004612570565b6108c3565b60405161017c91906125ef565b6101f661027336600461233e565b610ac0565b61019861028636600461233e565b610bad565b6101f66102993660046126fe565b610bc9565b6101706102ac366004612312565b600560209081526000928352604080842090915290825290205460ff1681565b610198603281565b61020b6102e2366004612589565b6112a3565b61022d7f000000000000000000000000000000000000000000000000000000000000000081565b61032161031c366004612570565b61130d565b60405161017c919061281a565b61034161033c366004612570565b61138d565b60405161017c9a99989796959493929190612867565b6101f6610365366004612570565b6114fb565b61037d610378366004612570565b6117d0565b60405161017c91906128e9565b6101f6610398366004612589565b611a77565b6101f66103ab3660046129cb565b611af0565b61019860025481565b60008281526005602090815260408083206001600160a01b038516845290915290205460ff165b92915050565b6006602052816000526040600020818154811061040257600080fd5b90600052602060002001600091509150505481565b6000610421611e1e565b600086511161046e5760405162461bcd60e51b81526020600482015260146024820152734e616d652063616e6e6f7420626520656d70747960601b60448201526064015b60405180910390fd5b60008551116104bf5760405162461bcd60e51b815260206004820152601b60248201527f4465736372697074696f6e2063616e6e6f7420626520656d70747900000000006044820152606401610465565b42831161050e5760405162461bcd60e51b815260206004820152601a60248201527f446561646c696e65206d75737420626520696e206675747572650000000000006044820152606401610465565b6000821161055e5760405162461bcd60e51b815260206004820152601d60248201527f526577617264206d7573742062652067726561746572207468616e20300000006044820152606401610465565b6040516323b872dd60e01b8152336004820152306024820152604481018390527f00000000000000000000000000000000000000000000000000000000000000006001600160a01b0316906323b872dd906064016020604051808303816000875af11580156105d1573d6000803e3d6000fd5b505050506040513d601f19601f820116820180604052508101906105f59190612aac565b6106385760405162461bcd60e51b81526020600482015260146024820152731554d115081d1c985b9cd9995c8819985a5b195960621b6044820152606401610465565b600280546000918261064983612ae4565b9091555060008181526003602052604090208181556001810180546001600160a01b03191633179055909150600281016106838982612b7d565b50600381016106928882612b7d565b5060048101805487919060ff191660018360058111156106b4576106b461282d565b021790555060058101859055600680820185905560078201805460ff1916905560006008830181905542600a84015533808252602092835260408083208054600181018255908452939092209092018490555183907f544a82eb44a353716dc15de053cc04c63578ff294b9f024ed8a68def45cbf7359061073c908c908b908a908c90612c3d565b60405180910390a35090506107516001600055565b95945050505050565b6004602052816000526040600020818154811061077657600080fd5b6000918252602090912060049091020180546001820180546001600160a01b0390921694509192506107a790612afd565b80601f01602080910402602001604051908101604052809291908181526020018280546107d390612afd565b80156108205780601f106107f557610100808354040283529160200191610820565b820191906000526020600020905b81548152906001019060200180831161080357829003601f168201915b5050505050908060030154905083565b60006103e082611e77565b610843611f14565b565b6001600160a01b0381166000908152600660209081526040918290208054835181840281018401909452808452606093928301828280156108a557602002820191906000526020600020905b815481526020019060010190808311610891575b50505050509050919050565b6108b9611f14565b6108436000611f6e565b606060046000838152602001908152602001600020805480602002602001604051908101604052809291908181526020016000905b82821015610ab557600084815260209081902060408051608081019091526004850290910180546001600160a01b03168252600181018054929391929184019161094190612afd565b80601f016020809104026020016040519081016040528092919081815260200182805461096d90612afd565b80156109ba5780601f1061098f576101008083540402835291602001916109ba565b820191906000526020600020905b81548152906001019060200180831161099d57829003601f168201915b5050505050815260200160028201805480602002602001604051908101604052809291908181526020016000905b82821015610a94578382906000526020600020018054610a0790612afd565b80601f0160208091040260200160405190810160405280929190818152602001828054610a3390612afd565b8015610a805780601f10610a5557610100808354040283529160200191610a80565b820191906000526020600020905b815481529060010190602001808311610a6357829003601f168201915b5050505050815260200190600101906109e8565b505050508152602001600382015481525050815260200190600101906108f8565b505050509050919050565b610ac8611f14565b6001600160a01b038216610b165760405162461bcd60e51b8152602060048201526015602482015274496e76616c696420746f6b656e206164647265737360581b6044820152606401610465565b816001600160a01b031663a9059cbb610b376001546001600160a01b031690565b6040516001600160e01b031960e084901b1681526001600160a01b039091166004820152602481018490526044016020604051808303816000875af1158015610b84573d6000803e3d6000fd5b505050506040513d601f19601f82011682018060405250810190610ba89190612aac565b505050565b6007602052816000526040600020818154811061040257600080fd5b60008281526003602052604090206001015482906001600160a01b0316610c025760405162461bcd60e51b815260040161046590612c71565b60008381526003602052604090206001015483906001600160a01b03163314610c625760405162461bcd60e51b81526020600482015260126024820152712737ba103137bab73a3c9031b932b0ba37b960711b6044820152606401610465565b836000808281526003602052604090206007015460ff166002811115610c8a57610c8a61282d565b14610ca75760405162461bcd60e51b815260040161046590612ca0565b6000858152600360205260409020600501548590421015610d015760405162461bcd60e51b8152602060048201526014602482015273111958591b1a5b99481b9bdd081c995858da195960621b6044820152606401610465565b610d09611e1e565b6000855111610d5a5760405162461bcd60e51b815260206004820152601d60248201527f4d7573742068617665206174206c65617374206f6e652077696e6e65720000006044820152606401610465565b600086815260036020526040812090805b8751811015610f315760006001600160a01b0316888281518110610d9157610d91612cc9565b6020026020010151600001516001600160a01b031603610dec5760405162461bcd60e51b8152602060048201526016602482015275496e76616c69642077696e6e6572206164647265737360501b6044820152606401610465565b6000888281518110610e0057610e00612cc9565b60200260200101516020015111610e595760405162461bcd60e51b815260206004820152601c60248201527f5072697a65206d7573742062652067726561746572207468616e2030000000006044820152606401610465565b600560008a81526020019081526020016000206000898381518110610e8057610e80612cc9565b602090810291909101810151516001600160a01b031682528101919091526040016000205460ff16610ef45760405162461bcd60e51b815260206004820152601a60248201527f57696e6e6572206d7573742068617665207375626d69747465640000000000006044820152606401610465565b878181518110610f0657610f06612cc9565b60200260200101516020015182610f1d9190612cdf565b915080610f2981612ae4565b915050610d6b565b508160060154811115610f905760405162461bcd60e51b815260206004820152602160248201527f546f74616c20646973747269627574696f6e20657863656564732072657761726044820152601960fa1b6064820152608401610465565b60005b87518110156111305782600901888281518110610fb257610fb2612cc9565b602090810291909101810151825460018082018555600094855293839020825160029092020180546001600160a01b0319166001600160a01b03928316178155919092015192019190915588517f00000000000000000000000000000000000000000000000000000000000000009091169063a9059cbb908a908490811061103c5761103c612cc9565b6020026020010151600001518a848151811061105a5761105a612cc9565b6020026020010151602001516040518363ffffffff1660e01b81526004016110979291906001600160a01b03929092168252602082015260400190565b6020604051808303816000875af11580156110b6573d6000803e3d6000fd5b505050506040513d601f19601f820116820180604052508101906110da9190612aac565b61111e5760405162461bcd60e51b8152602060048201526015602482015274141c9a5e99481d1c985b9cd9995c8819985a5b1959605a1b6044820152606401610465565b8061112881612ae4565b915050610f93565b5060078201805460ff191660011790556006820154600090611153908390612cf2565b9050801561124157600183015460405163a9059cbb60e01b81526001600160a01b039182166004820152602481018390527f00000000000000000000000000000000000000000000000000000000000000009091169063a9059cbb906044016020604051808303816000875af11580156111d1573d6000803e3d6000fd5b505050506040513d601f19601f820116820180604052508101906111f59190612aac565b6112415760405162461bcd60e51b815260206004820152601760248201527f52656d61696e64657220726566756e64206661696c65640000000000000000006044820152606401610465565b60018301546040516001600160a01b03909116908a907f90d0412ee7dd13be08696d0955eb96cf9dcd7116469f684e760d0740d153d4ab90611286908c908790612d05565b60405180910390a350505061129b6001600055565b505050505050565b6001600160a01b0381166000908152600760209081526040918290208054835181840281018401909452808452606093928301828280156108a557602002820191906000526020600020908154815260200190600101908083116108915750505050509050919050565b606060036000838152602001908152602001600020600901805480602002602001604051908101604052809291908181526020016000905b82821015610ab5576000848152602090819020604080518082019091526002850290910180546001600160a01b03168252600190810154828401529083529092019101611345565b60036020526000908152604090208054600182015460028301805492936001600160a01b03909216926113bf90612afd565b80601f01602080910402602001604051908101604052809291908181526020018280546113eb90612afd565b80156114385780601f1061140d57610100808354040283529160200191611438565b820191906000526020600020905b81548152906001019060200180831161141b57829003601f168201915b50505050509080600301805461144d90612afd565b80601f016020809104026020016040519081016040528092919081815260200182805461147990612afd565b80156114c65780601f1061149b576101008083540402835291602001916114c6565b820191906000526020600020905b8154815290600101906020018083116114a957829003601f168201915b5050505060048301546005840154600685015460078601546008870154600a90970154959660ff94851696939550919316918a565b60008181526003602052604090206001015481906001600160a01b03166115345760405162461bcd60e51b815260040161046590612c71565b60008281526003602052604090206001015482906001600160a01b031633146115945760405162461bcd60e51b81526020600482015260126024820152712737ba103137bab73a3c9031b932b0ba37b960711b6044820152606401610465565b826000808281526003602052604090206007015460ff1660028111156115bc576115bc61282d565b146115d95760405162461bcd60e51b815260040161046590612ca0565b6000848152600360205260409020600501548490421061162d5760405162461bcd60e51b815260206004820152600f60248201526e111958591b1a5b99481c185cdcd959608a1b6044820152606401610465565b611635611e1e565b60008581526003602052604081209061164d87611e77565b905060008183600601546116619190612cf2565b60078401805460ff1916600217905590508115801590611685575060008360080154115b15611694576116948883611fc0565b801561177057600183015460405163a9059cbb60e01b81526001600160a01b039182166004820152602481018390527f00000000000000000000000000000000000000000000000000000000000000009091169063a9059cbb906044016020604051808303816000875af1158015611710573d6000803e3d6000fd5b505050506040513d601f19601f820116820180604052508101906117349190612aac565b6117705760405162461bcd60e51b815260206004820152600d60248201526c1499599d5b990819985a5b1959609a1b6044820152606401610465565b600183015460408051848152602081018490526001600160a01b03909216918a917f3f6601636736aadd1abec1cc8b31c674cf6e219856cb653eb7242f6a1fed3c4d910160405180910390a35050506117c96001600055565b5050505050565b6117d86121b4565b6000828152600360205260409020600101546001600160a01b031661180f5760405162461bcd60e51b815260040161046590612c71565b6000828152600360209081526040918290208251610160810184528154815260018201546001600160a01b031692810192909252600281018054929391929184019161185a90612afd565b80601f016020809104026020016040519081016040528092919081815260200182805461188690612afd565b80156118d35780601f106118a8576101008083540402835291602001916118d3565b820191906000526020600020905b8154815290600101906020018083116118b657829003601f168201915b505050505081526020016003820180546118ec90612afd565b80601f016020809104026020016040519081016040528092919081815260200182805461191890612afd565b80156119655780601f1061193a57610100808354040283529160200191611965565b820191906000526020600020905b81548152906001019060200180831161194857829003601f168201915b5050509183525050600482015460209091019060ff16600581111561198c5761198c61282d565b600581111561199d5761199d61282d565b81526005820154602082015260068201546040820152600782015460609091019060ff1660028111156119d2576119d261282d565b60028111156119e3576119e361282d565b81526020016008820154815260200160098201805480602002602001604051908101604052809291908181526020016000905b82821015611a5e576000848152602090819020604080518082019091526002850290910180546001600160a01b03168252600190810154828401529083529092019101611a16565b505050508152602001600a820154815250509050919050565b611a7f611f14565b6001600160a01b038116611ae45760405162461bcd60e51b815260206004820152602660248201527f4f776e61626c653a206e6577206f776e657220697320746865207a65726f206160448201526564647265737360d01b6064820152608401610465565b611aed81611f6e565b50565b60008381526003602052604090206001015483906001600160a01b0316611b295760405162461bcd60e51b815260040161046590612c71565b836000808281526003602052604090206007015460ff166002811115611b5157611b5161282d565b14611b6e5760405162461bcd60e51b815260040161046590612ca0565b60008581526003602052604090206005015485904210611bc25760405162461bcd60e51b815260206004820152600f60248201526e111958591b1a5b99481c185cdcd959608a1b6044820152606401610465565b600086815260036020526040902060010154336001600160a01b0390911603611c255760405162461bcd60e51b815260206004820152601560248201527410dc99585d1bdc8818d85b9b9bdd081cdd589b5a5d605a1b6044820152606401610465565b600086815260056020908152604080832033845290915290205460ff1615611c835760405162461bcd60e51b8152602060048201526011602482015270105b1c9958591e481cdd589b5a5d1d1959607a1b6044820152606401610465565b6000855111611cd45760405162461bcd60e51b815260206004820152601860248201527f4d61696e205552492063616e6e6f7420626520656d70747900000000000000006044820152606401610465565b60408051608081018252338152602080820188815282840188905242606084015260008a815260048084529481208054600180820183559183529390912084519390950290940180546001600160a01b0319166001600160a01b03909316929092178255519192839290820190611d4b9082612b7d565b5060408201518051611d67916002840191602090910190612239565b506060919091015160039182015560008881526005602090815260408083203384528252808320805460ff191660011790558a8352929052908120600801805491611db183612ae4565b9091555050336000818152600760209081526040808320805460018101825590845291909220018990555188907fab8eecfaa80d60b7abf63cbbcf469f394849ab2cb0bf1d5971f989a78d8b781790611e0d908a904290612d27565b60405180910390a350505050505050565b600260005403611e705760405162461bcd60e51b815260206004820152601f60248201527f5265656e7472616e637947756172643a207265656e7472616e742063616c6c006044820152606401610465565b6002600055565b6000818152600360205260408120600a8101548290611e969042612cf2565b9050600082600a01548360050154611eae9190612cf2565b9050808210611ed457606460328460060154611eca9190612d3a565b6107519190612d67565b600081611ee2603285612d3a565b611eec9190612d67565b90506064818560060154611f009190612d3a565b611f0a9190612d67565b9695505050505050565b6001546001600160a01b031633146108435760405162461bcd60e51b815260206004820181905260248201527f4f776e61626c653a2063616c6c6572206973206e6f7420746865206f776e65726044820152606401610465565b600180546001600160a01b038381166001600160a01b0319831681179093556040519116919082907f8be0079c531659141344cd1fd0a4f28419497f9722a3daafe3b4186f6b6457e090600090a35050565b600082815260046020526040812080549091819003611fdf5750505050565b6000611feb8285612d67565b90506000611ff98386612d7b565b905060005b838110156121ab57828282101561201d5761201a600182612cdf565b90505b8015612198577f00000000000000000000000000000000000000000000000000000000000000006001600160a01b031663a9059cbb87848154811061206457612064612cc9565b600091825260209091206004918202015460405160e084901b6001600160e01b03191681526001600160a01b0390911691810191909152602481018490526044016020604051808303816000875af11580156120c4573d6000803e3d6000fd5b505050506040513d601f19601f820116820180604052508101906120e89190612aac565b6121345760405162461bcd60e51b815260206004820152601b60248201527f50656e616c747920646973747269627574696f6e206661696c656400000000006044820152606401610465565b85828154811061214657612146612cc9565b6000918252602091829020600490910201546040518381526001600160a01b03909116918a917fb97f68333319ecbd424e5a785900e4b57a3b9e0179848ecdc389e18107360f83910160405180910390a35b50806121a381612ae4565b915050611ffe565b50505050505050565b6040518061016001604052806000815260200160006001600160a01b031681526020016060815260200160608152602001600060058111156121f8576121f861282d565b815260200160008152602001600081526020016000600281111561221e5761221e61282d565b81526020016000815260200160608152602001600081525090565b82805482825590600052602060002090810192821561227f579160200282015b8281111561227f578251829061226f9082612b7d565b5091602001919060010190612259565b5061228b92915061228f565b5090565b8082111561228b5760006122a382826122ac565b5060010161228f565b5080546122b890612afd565b6000825580601f106122c8575050565b601f016020900490600052602060002090810190611aed91905b8082111561228b57600081556001016122e2565b80356001600160a01b038116811461230d57600080fd5b919050565b6000806040838503121561232557600080fd5b82359150612335602084016122f6565b90509250929050565b6000806040838503121561235157600080fd5b61235a836122f6565b946020939093013593505050565b634e487b7160e01b600052604160045260246000fd5b6040805190810167ffffffffffffffff811182821017156123a1576123a1612368565b60405290565b604051601f8201601f1916810167ffffffffffffffff811182821017156123d0576123d0612368565b604052919050565b600082601f8301126123e957600080fd5b813567ffffffffffffffff81111561240357612403612368565b612416601f8201601f19166020016123a7565b81815284602083860101111561242b57600080fd5b816020850160208301376000918101602001919091529392505050565b600080600080600060a0868803121561246057600080fd5b853567ffffffffffffffff8082111561247857600080fd5b61248489838a016123d8565b9650602088013591508082111561249a57600080fd5b506124a7888289016123d8565b9450506040860135600681106124bc57600080fd5b94979396509394606081013594506080013592915050565b600080604083850312156124e757600080fd5b50508035926020909101359150565b6000815180845260005b8181101561251c57602081850181015186830182015201612500565b506000602082860101526020601f19601f83011685010191505092915050565b6001600160a01b0384168152606060208201819052600090612560908301856124f6565b9050826040830152949350505050565b60006020828403121561258257600080fd5b5035919050565b60006020828403121561259b57600080fd5b6125a4826122f6565b9392505050565b6020808252825182820181905260009190848201906040850190845b818110156125e3578351835292840192918401916001016125c7565b50909695505050505050565b602080825282518282018190526000919060409081850190600581811b8701840188860187805b858110156126ca578a8403603f19018752825180516001600160a01b031685528981015160808b87018190529061264f828801826124f6565b838c0151888203898e015280518083529193508d0191508c830190808a1b84018e01875b828110156126a657601f1986830301845261268f8286516124f6565b91508f850194508f84019350600181019050612673565b50606095860151999095019890985250505096890196935091880191600101612616565b50919a9950505050505050505050565b600067ffffffffffffffff8211156126f4576126f4612368565b5060051b60200190565b600080604080848603121561271257600080fd5b8335925060208085013567ffffffffffffffff81111561273157600080fd5b8501601f8101871361274257600080fd5b8035612755612750826126da565b6123a7565b81815260069190911b8201830190838101908983111561277457600080fd5b928401925b828410156127bb5785848b0312156127915760008081fd5b61279961237e565b6127a2856122f6565b8152848601358682015282529285019290840190612779565b8096505050505050509250929050565b600081518084526020808501945080840160005b8381101561280f57815180516001600160a01b0316885283015183880152604090960195908201906001016127df565b509495945050505050565b6020815260006125a460208301846127cb565b634e487b7160e01b600052602160045260246000fd5b600681106128535761285361282d565b9052565b600381106128535761285361282d565b8a81526001600160a01b038a166020820152610140604082018190526000906128928382018c6124f6565b905082810360608401526128a6818b6124f6565b9150506128b66080830189612843565b8660a08301528560c08301526128cf60e0830186612857565b610100820193909352610120015298975050505050505050565b60208152815160208201526000602083015161291060408401826001600160a01b03169052565b50604083015161016080606085015261292d6101808501836124f6565b91506060850151601f198086850301608087015261294b84836124f6565b93506080870151915061296160a0870183612843565b60a087015160c087015260c087015160e087015260e0870151915061010061298b81880184612857565b808801519250506101208281880152808801519250506101408187860301818801526129b785846127cb565b970151959092019490945250929392505050565b6000806000606084860312156129e057600080fd5b8335925060208085013567ffffffffffffffff80821115612a0057600080fd5b612a0c888389016123d8565b94506040870135915080821115612a2257600080fd5b818701915087601f830112612a3657600080fd5b8135612a44612750826126da565b81815260059190911b8301840190848101908a831115612a6357600080fd5b8585015b83811015612a9b57803585811115612a7f5760008081fd5b612a8d8d89838a01016123d8565b845250918601918601612a67565b508096505050505050509250925092565b600060208284031215612abe57600080fd5b815180151581146125a457600080fd5b634e487b7160e01b600052601160045260246000fd5b600060018201612af657612af6612ace565b5060010190565b600181811c90821680612b1157607f821691505b602082108103612b3157634e487b7160e01b600052602260045260246000fd5b50919050565b601f821115610ba857600081815260208120601f850160051c81016020861015612b5e5750805b601f850160051c820191505b8181101561129b57828155600101612b6a565b815167ffffffffffffffff811115612b9757612b97612368565b612bab81612ba58454612afd565b84612b37565b602080601f831160018114612be05760008415612bc85750858301515b600019600386901b1c1916600185901b17855561129b565b600085815260208120601f198616915b82811015612c0f57888601518255948401946001909101908401612bf0565b5085821015612c2d5787850151600019600388901b60f8161c191681555b5050505050600190811b01905550565b608081526000612c5060808301876124f6565b9050612c5f6020830186612843565b60408201939093526060015292915050565b602080825260159082015274109bdd5b9d1e48191bd95cc81b9bdd08195e1a5cdd605a1b604082015260600190565b6020808252600f908201526e2137bab73a3c903737ba1037b832b760891b604082015260600190565b634e487b7160e01b600052603260045260246000fd5b808201808211156103e0576103e0612ace565b818103818111156103e0576103e0612ace565b604081526000612d1860408301856127cb565b90508260208301529392505050565b604081526000612d1860408301856124f6565b80820281158282048414176103e0576103e0612ace565b634e487b7160e01b600052601260045260246000fd5b600082612d7657612d76612d51565b500490565b600082612d8a57612d8a612d51565b50069056fea26469706673582212208ac1df68c859cfe337009a330642f3559e10f180cd58933e5293803d1ca25e7464736f6c63430008130033",
  "linkReferences": {},
  "deployedLinkReferences": {}
}