{
  "_format": "hh-sol-artifact-1",
  "contractName": "FreelanceGigEscrow",
  "sourceName": "contracts/Freelance.sol",
  "abi": [
    {
      "inputs": [
        {
          "internalType": "address",
          "name": "_mockUSDT",
          "type": "address"
        }
      ],
      "stateMutability": "nonpayable",
      "type": "constructor"
    },
    {
      "anonymous": false,
      "inputs": [
        {
          "indexed": true,
          "internalType": "uint256",
          "name": "gigId",
          "type": "uint256"
        },
        {
          "indexed": false,
          "internalType": "uint256",
          "name": "newDeadline",
          "type": "uint256"
        }
      ],
      "name": "DeadlineExtended",
      "type": "event"
    },
    {
      "anonymous": false,
      "inputs": [
        {
          "indexed": true,
          "internalType": "uint256",
          "name": "gigId",
          "type": "uint256"
        },
        {
          "indexed": true,
          "internalType": "address",
          "name": "freelancer",
          "type": "address"
        },
        {
          "indexed": false,
          "internalType": "uint256",
          "name": "stakingDeadline",
          "type": "uint256"
        }
      ],
      "name": "FreelancerSelected",
      "type": "event"
    },
    {
      "anonymous": false,
      "inputs": [
        {
          "indexed": true,
          "internalType": "uint256",
          "name": "gigId",
          "type": "uint256"
        },
        {
          "indexed": false,
          "internalType": "string",
          "name": "reason",
          "type": "string"
        }
      ],
      "name": "GigCanceled",
      "type": "event"
    },
    {
      "anonymous": false,
      "inputs": [
        {
          "indexed": true,
          "internalType": "uint256",
          "name": "gigId",
          "type": "uint256"
        },
        {
          "indexed": false,
          "internalType": "uint256",
          "name": "amount",
          "type": "uint256"
        }
      ],
      "name": "GigFunded",
      "type": "event"
    },
    {
      "anonymous": false,
      "inputs": [
        {
          "indexed": true,
          "internalType": "uint256",
          "name": "gigId",
          "type": "uint256"
        },
        {
          "indexed": true,
          "internalType": "address",
          "name": "client",
          "type": "address"
        },
        {
          "indexed": false,
          "internalType": "uint256",
          "name": "usdtAmount",
          "type": "uint256"
        },
        {
          "indexed": false,
          "internalType": "uint256",
          "name": "deadline",
          "type": "uint256"
        },
        {
          "indexed": false,
          "internalType": "uint256",
          "name": "proposalDeadline",
          "type": "uint256"
        },
        {
          "indexed": false,
          "internalType": "string",
          "name": "detailsUri",
          "type": "string"
        }
      ],
      "name": "GigPosted",
      "type": "event"
    },
    {
      "anonymous": false,
      "inputs": [
        {
          "indexed": true,
          "internalType": "address",
          "name": "previousOwner",
          "type": "address"
        },
        {
          "indexed": true,
          "internalType": "address",
          "name": "newOwner",
          "type": "address"
        }
      ],
      "name": "OwnershipTransferred",
      "type": "event"
    },
    {
      "anonymous": false,
      "inputs": [
        {
          "indexed": true,
          "internalType": "uint256",
          "name": "gigId",
          "type": "uint256"
        },
        {
          "indexed": true,
          "internalType": "address",
          "name": "freelancer",
          "type": "address"
        },
        {
          "indexed": false,
          "internalType": "uint256",
          "name": "amount",
          "type": "uint256"
        },
        {
          "indexed": false,
          "internalType": "uint256",
          "name": "platformFee",
          "type": "uint256"
        }
      ],
      "name": "PayoutReleased",
      "type": "event"
    },
    {
      "anonymous": false,
      "inputs": [
        {
          "indexed": true,
          "internalType": "uint256",
          "name": "gigId",
          "type": "uint256"
        },
        {
          "indexed": true,
          "internalType": "address",
          "name": "freelancer",
          "type": "address"
        },
        {
          "indexed": false,
          "internalType": "string",
          "name": "proposalUri",
          "type": "string"
        }
      ],
      "name": "ProposalSubmitted",
      "type": "event"
    },
    {
      "anonymous": false,
      "inputs": [
        {
          "indexed": true,
          "internalType": "uint256",
          "name": "gigId",
          "type": "uint256"
        },
        {
          "indexed": true,
          "internalType": "address",
          "name": "freelancer",
          "type": "address"
        },
        {
          "indexed": false,
          "internalType": "string",
          "name": "newProposalUri",
          "type": "string"
        }
      ],
      "name": "ProposalUpdated",
      "type": "event"
    },
    {
      "anonymous": false,
      "inputs": [
        {
          "indexed": true,
          "internalType": "uint256",
          "name": "gigId",
          "type": "uint256"
        },
        {
          "indexed": true,
          "internalType": "address",
          "name": "freelancer",
          "type": "address"
        }
      ],
      "name": "ProposalWithdrawn",
      "type": "event"
    },
    {
      "anonymous": false,
      "inputs": [
        {
          "indexed": true,
          "internalType": "uint256",
          "name": "gigId",
          "type": "uint256"
        },
        {
          "indexed": true,
          "internalType": "address",
          "name": "freelancer",
          "type": "address"
        }
      ],
      "name": "SelectionAutoExpired",
      "type": "event"
    },
    {
      "anonymous": false,
      "inputs": [
        {
          "indexed": true,
          "internalType": "uint256",
          "name": "gigId",
          "type": "uint256"
        },
        {
          "indexed": true,
          "internalType": "address",
          "name": "freelancer",
          "type": "address"
        },
        {
          "indexed": false,
          "internalType": "uint256",
          "name": "amount",
          "type": "uint256"
        }
      ],
      "name": "StakeDeposited",
      "type": "event"
    },
    {
      "anonymous": false,
      "inputs": [
        {
          "indexed": true,
          "internalType": "uint256",
          "name": "gigId",
          "type": "uint256"
        }
      ],
      "name": "WorkApproved",
      "type": "event"
    },
    {
      "inputs": [
        {
          "internalType": "uint256",
          "name": "",
          "type": "uint256"
        },
        {
          "internalType": "uint256",
          "name": "",
          "type": "uint256"
        }
      ],
      "name": "applicants",
      "outputs": [
        {
          "internalType": "address",
          "name": "",
          "type": "address"
        }
      ],
      "stateMutability": "view",
      "type": "function"
    },
    {
      "inputs": [
        {
          "internalType": "uint256",
          "name": "gigId",
          "type": "uint256"
        }
      ],
      "name": "approveWork",
      "outputs": [],
      "stateMutability": "nonpayable",
      "type": "function"
    },
    {
      "inputs": [
        {
          "internalType": "uint256",
          "name": "gigId",
          "type": "uint256"
        }
      ],
      "name": "canExpireSelection",
      "outputs": [
        {
          "internalType": "bool",
          "name": "",
          "type": "bool"
        }
      ],
      "stateMutability": "view",
      "type": "function"
    },
    {
      "inputs": [
        {
          "internalType": "uint256",
          "name": "gigId",
          "type": "uint256"
        },
        {
          "internalType": "address",
          "name": "user",
          "type": "address"
        }
      ],
      "name": "canUserPropose",
      "outputs": [
        {
          "internalType": "bool",
          "name": "",
          "type": "bool"
        }
      ],
      "stateMutability": "view",
      "type": "function"
    },
    {
      "inputs": [
        {
          "internalType": "uint256",
          "name": "gigId",
          "type": "uint256"
        },
        {
          "internalType": "string",
          "name": "reason",
          "type": "string"
        }
      ],
      "name": "cancelGig",
      "outputs": [],
      "stateMutability": "nonpayable",
      "type": "function"
    },
    {
      "inputs": [
        {
          "internalType": "address",
          "name": "",
          "type": "address"
        },
        {
          "internalType": "uint256",
          "name": "",
          "type": "uint256"
        }
      ],
      "name": "clientGigs",
      "outputs": [
        {
          "internalType": "uint256",
          "name": "",
          "type": "uint256"
        }
      ],
      "stateMutability": "view",
      "type": "function"
    },
    {
      "inputs": [
        {
          "internalType": "uint256",
          "name": "gigId",
          "type": "uint256"
        }
      ],
      "name": "depositStake",
      "outputs": [],
      "stateMutability": "payable",
      "type": "function"
    },
    {
      "inputs": [],
      "name": "emergencyWithdraw",
      "outputs": [],
      "stateMutability": "nonpayable",
      "type": "function"
    },
    {
      "inputs": [
        {
          "internalType": "uint256",
          "name": "gigId",
          "type": "uint256"
        }
      ],
      "name": "expireSelection",
      "outputs": [],
      "stateMutability": "nonpayable",
      "type": "function"
    },
    {
      "inputs": [
        {
          "internalType": "uint256",
          "name": "gigId",
          "type": "uint256"
        },
        {
          "internalType": "uint256",
          "name": "additionalDays",
          "type": "uint256"
        }
      ],
      "name": "extendDeadline",
      "outputs": [],
      "stateMutability": "nonpayable",
      "type": "function"
    },
    {
      "inputs": [
        {
          "internalType": "address",
          "name": "",
          "type": "address"
        },
        {
          "internalType": "uint256",
          "name": "",
          "type": "uint256"
        }
      ],
      "name": "freelancerGigs",
      "outputs": [
        {
          "internalType": "uint256",
          "name": "",
          "type": "uint256"
        }
      ],
      "stateMutability": "view",
      "type": "function"
    },
    {
      "inputs": [
        {
          "internalType": "uint256",
          "name": "gigId",
          "type": "uint256"
        }
      ],
      "name": "fundGig",
      "outputs": [],
      "stateMutability": "nonpayable",
      "type": "function"
    },
    {
      "inputs": [
        {
          "internalType": "uint256",
          "name": "gigId",
          "type": "uint256"
        }
      ],
      "name": "getActiveApplicants",
      "outputs": [
        {
          "internalType": "address[]",
          "name": "",
          "type": "address[]"
        }
      ],
      "stateMutability": "view",
      "type": "function"
    },
    {
      "inputs": [
        {
          "internalType": "uint256",
          "name": "gigId",
          "type": "uint256"
        }
      ],
      "name": "getActiveProposals",
      "outputs": [
        {
          "components": [
            {
              "internalType": "address",
              "name": "freelancer",
              "type": "address"
            },
            {
              "internalType": "string",
              "name": "proposalUri",
              "type": "string"
            },
            {
              "internalType": "uint256",
              "name": "submittedAt",
              "type": "uint256"
            },
            {
              "internalType": "uint256",
              "name": "lastUpdatedAt",
              "type": "uint256"
            },
            {
              "internalType": "bool",
              "name": "isSelected",
              "type": "bool"
            },
            {
              "internalType": "bool",
              "name": "isWithdrawn",
              "type": "bool"
            },
            {
              "internalType": "bool",
              "name": "isAutoExpired",
              "type": "bool"
            }
          ],
          "internalType": "struct FreelanceGigEscrow.Proposal[]",
          "name": "",
          "type": "tuple[]"
        }
      ],
      "stateMutability": "view",
      "type": "function"
    },
    {
      "inputs": [
        {
          "internalType": "uint256",
          "name": "gigId",
          "type": "uint256"
        }
      ],
      "name": "getAllProposals",
      "outputs": [
        {
          "components": [
            {
              "internalType": "address",
              "name": "freelancer",
              "type": "address"
            },
            {
              "internalType": "string",
              "name": "proposalUri",
              "type": "string"
            },
            {
              "internalType": "uint256",
              "name": "submittedAt",
              "type": "uint256"
            },
            {
              "internalType": "uint256",
              "name": "lastUpdatedAt",
              "type": "uint256"
            },
            {
              "internalType": "bool",
              "name": "isSelected",
              "type": "bool"
            },
            {
              "internalType": "bool",
              "name": "isWithdrawn",
              "type": "bool"
            },
            {
              "internalType": "bool",
              "name": "isAutoExpired",
              "type": "bool"
            }
          ],
          "internalType": "struct FreelanceGigEscrow.Proposal[]",
          "name": "",
          "type": "tuple[]"
        }
      ],
      "stateMutability": "view",
      "type": "function"
    },
    {
      "inputs": [
        {
          "internalType": "uint256",
          "name": "gigId",
          "type": "uint256"
        }
      ],
      "name": "getApplicants",
      "outputs": [
        {
          "internalType": "address[]",
          "name": "",
          "type": "address[]"
        }
      ],
      "stateMutability": "view",
      "type": "function"
    },
    {
      "inputs": [
        {
          "internalType": "address",
          "name": "client",
          "type": "address"
        }
      ],
      "name": "getClientGigs",
      "outputs": [
        {
          "internalType": "uint256[]",
          "name": "",
          "type": "uint256[]"
        }
      ],
      "stateMutability": "view",
      "type": "function"
    },
    {
      "inputs": [
        {
          "internalType": "address",
          "name": "freelancer",
          "type": "address"
        }
      ],
      "name": "getFreelancerGigs",
      "outputs": [
        {
          "internalType": "uint256[]",
          "name": "",
          "type": "uint256[]"
        }
      ],
      "stateMutability": "view",
      "type": "function"
    },
    {
      "inputs": [
        {
          "internalType": "uint256",
          "name": "gigId",
          "type": "uint256"
        }
      ],
      "name": "getGigDetails",
      "outputs": [
        {
          "components": [
            {
              "internalType": "address",
              "name": "client",
              "type": "address"
            },
            {
              "internalType": "string",
              "name": "title",
              "type": "string"
            },
            {
              "internalType": "string",
              "name": "description",
              "type": "string"
            },
            {
              "internalType": "string",
              "name": "detailsUri",
              "type": "string"
            },
            {
              "internalType": "uint256",
              "name": "usdtAmount",
              "type": "uint256"
            },
            {
              "internalType": "uint256",
              "name": "nativeStakeRequired",
              "type": "uint256"
            },
            {
              "internalType": "address",
              "name": "selectedFreelancer",
              "type": "address"
            },
            {
              "internalType": "bool",
              "name": "isApproved",
              "type": "bool"
            },
            {
              "internalType": "bool",
              "name": "isFunded",
              "type": "bool"
            },
            {
              "internalType": "bool",
              "name": "isStakeDeposited",
              "type": "bool"
            },
            {
              "internalType": "bool",
              "name": "isCompleted",
              "type": "bool"
            },
            {
              "internalType": "uint256",
              "name": "deadline",
              "type": "uint256"
            },
            {
              "internalType": "uint256",
              "name": "proposalDeadline",
              "type": "uint256"
            },
            {
              "internalType": "uint256",
              "name": "stakingDeadline",
              "type": "uint256"
            },
            {
              "internalType": "uint256",
              "name": "createdAt",
              "type": "uint256"
            }
          ],
          "internalType": "struct FreelanceGigEscrow.Gig",
          "name": "",
          "type": "tuple"
        }
      ],
      "stateMutability": "view",
      "type": "function"
    },
    {
      "inputs": [
        {
          "internalType": "uint256",
          "name": "gigId",
          "type": "uint256"
        },
        {
          "internalType": "address",
          "name": "freelancer",
          "type": "address"
        }
      ],
      "name": "getProposal",
      "outputs": [
        {
          "components": [
            {
              "internalType": "address",
              "name": "freelancer",
              "type": "address"
            },
            {
              "internalType": "string",
              "name": "proposalUri",
              "type": "string"
            },
            {
              "internalType": "uint256",
              "name": "submittedAt",
              "type": "uint256"
            },
            {
              "internalType": "uint256",
              "name": "lastUpdatedAt",
              "type": "uint256"
            },
            {
              "internalType": "bool",
              "name": "isSelected",
              "type": "bool"
            },
            {
              "internalType": "bool",
              "name": "isWithdrawn",
              "type": "bool"
            },
            {
              "internalType": "bool",
              "name": "isAutoExpired",
              "type": "bool"
            }
          ],
          "internalType": "struct FreelanceGigEscrow.Proposal",
          "name": "",
          "type": "tuple"
        }
      ],
      "stateMutability": "view",
      "type": "function"
    },
    {
      "inputs": [
        {
          "internalType": "uint256",
          "name": "gigId",
          "type": "uint256"
        }
      ],
      "name": "getStakingDeadline",
      "outputs": [
        {
          "internalType": "uint256",
          "name": "",
          "type": "uint256"
        }
      ],
      "stateMutability": "view",
      "type": "function"
    },
    {
      "inputs": [
        {
          "internalType": "uint256",
          "name": "",
          "type": "uint256"
        }
      ],
      "name": "gigCoreDetails",
      "outputs": [
        {
          "internalType": "address",
          "name": "client",
          "type": "address"
        },
        {
          "internalType": "string",
          "name": "title",
          "type": "string"
        },
        {
          "internalType": "string",
          "name": "description",
          "type": "string"
        },
        {
          "internalType": "string",
          "name": "detailsUri",
          "type": "string"
        },
        {
          "internalType": "uint256",
          "name": "usdtAmount",
          "type": "uint256"
        },
        {
          "internalType": "uint256",
          "name": "nativeStakeRequired",
          "type": "uint256"
        },
        {
          "internalType": "uint256",
          "name": "createdAt",
          "type": "uint256"
        }
      ],
      "stateMutability": "view",
      "type": "function"
    },
    {
      "inputs": [],
      "name": "gigCount",
      "outputs": [
        {
          "internalType": "uint256",
          "name": "",
          "type": "uint256"
        }
      ],
      "stateMutability": "view",
      "type": "function"
    },
    {
      "inputs": [
        {
          "internalType": "uint256",
          "name": "",
          "type": "uint256"
        }
      ],
      "name": "gigStatusDetails",
      "outputs": [
        {
          "internalType": "address",
          "name": "selectedFreelancer",
          "type": "address"
        },
        {
          "internalType": "bool",
          "name": "isApproved",
          "type": "bool"
        },
        {
          "internalType": "bool",
          "name": "isFunded",
          "type": "bool"
        },
        {
          "internalType": "bool",
          "name": "isStakeDeposited",
          "type": "bool"
        },
        {
          "internalType": "bool",
          "name": "isCompleted",
          "type": "bool"
        },
        {
          "internalType": "uint256",
          "name": "deadline",
          "type": "uint256"
        },
        {
          "internalType": "uint256",
          "name": "proposalDeadline",
          "type": "uint256"
        },
        {
          "internalType": "uint256",
          "name": "stakingDeadline",
          "type": "uint256"
        }
      ],
      "stateMutability": "view",
      "type": "function"
    },
    {
      "inputs": [
        {
          "internalType": "uint256",
          "name": "",
          "type": "uint256"
        },
        {
          "internalType": "address",
          "name": "",
          "type": "address"
        }
      ],
      "name": "hasEverApplied",
      "outputs": [
        {
          "internalType": "bool",
          "name": "",
          "type": "bool"
        }
      ],
      "stateMutability": "view",
      "type": "function"
    },
    {
      "inputs": [
        {
          "internalType": "uint256",
          "name": "gigId",
          "type": "uint256"
        }
      ],
      "name": "isGigActive",
      "outputs": [
        {
          "internalType": "bool",
          "name": "",
          "type": "bool"
        }
      ],
      "stateMutability": "view",
      "type": "function"
    },
    {
      "inputs": [
        {
          "internalType": "uint256",
          "name": "gigId",
          "type": "uint256"
        }
      ],
      "name": "isProposalPeriodActive",
      "outputs": [
        {
          "internalType": "bool",
          "name": "",
          "type": "bool"
        }
      ],
      "stateMutability": "view",
      "type": "function"
    },
    {
      "inputs": [
        {
          "internalType": "uint256",
          "name": "gigId",
          "type": "uint256"
        }
      ],
      "name": "isStakingRequired",
      "outputs": [
        {
          "internalType": "bool",
          "name": "",
          "type": "bool"
        }
      ],
      "stateMutability": "view",
      "type": "function"
    },
    {
      "inputs": [],
      "name": "mockUSDT",
      "outputs": [
        {
          "internalType": "contract IERC20",
          "name": "",
          "type": "address"
        }
      ],
      "stateMutability": "view",
      "type": "function"
    },
    {
      "inputs": [],
      "name": "owner",
      "outputs": [
        {
          "internalType": "address",
          "name": "",
          "type": "address"
        }
      ],
      "stateMutability": "view",
      "type": "function"
    },
    {
      "inputs": [],
      "name": "platformFeePercent",
      "outputs": [
        {
          "internalType": "uint256",
          "name": "",
          "type": "uint256"
        }
      ],
      "stateMutability": "view",
      "type": "function"
    },
    {
      "inputs": [
        {
          "internalType": "string",
          "name": "title",
          "type": "string"
        },
        {
          "internalType": "string",
          "name": "description",
          "type": "string"
        },
        {
          "internalType": "string",
          "name": "detailsUri",
          "type": "string"
        },
        {
          "internalType": "uint256",
          "name": "usdtAmount",
          "type": "uint256"
        },
        {
          "internalType": "uint256",
          "name": "nativeStakeRequired",
          "type": "uint256"
        },
        {
          "internalType": "uint256",
          "name": "durationDays",
          "type": "uint256"
        },
        {
          "internalType": "uint256",
          "name": "proposalDurationDays",
          "type": "uint256"
        }
      ],
      "name": "postGig",
      "outputs": [],
      "stateMutability": "nonpayable",
      "type": "function"
    },
    {
      "inputs": [
        {
          "internalType": "uint256",
          "name": "",
          "type": "uint256"
        },
        {
          "internalType": "address",
          "name": "",
          "type": "address"
        }
      ],
      "name": "proposals",
      "outputs": [
        {
          "internalType": "address",
          "name": "freelancer",
          "type": "address"
        },
        {
          "internalType": "string",
          "name": "proposalUri",
          "type": "string"
        },
        {
          "internalType": "uint256",
          "name": "submittedAt",
          "type": "uint256"
        },
        {
          "internalType": "uint256",
          "name": "lastUpdatedAt",
          "type": "uint256"
        },
        {
          "internalType": "bool",
          "name": "isSelected",
          "type": "bool"
        },
        {
          "internalType": "bool",
          "name": "isWithdrawn",
          "type": "bool"
        },
        {
          "internalType": "bool",
          "name": "isAutoExpired",
          "type": "bool"
        }
      ],
      "stateMutability": "view",
      "type": "function"
    },
    {
      "inputs": [
        {
          "internalType": "uint256",
          "name": "gigId",
          "type": "uint256"
        }
      ],
      "name": "releasePayment",
      "outputs": [],
      "stateMutability": "nonpayable",
      "type": "function"
    },
    {
      "inputs": [],
      "name": "renounceOwnership",
      "outputs": [],
      "stateMutability": "nonpayable",
      "type": "function"
    },
    {
      "inputs": [
        {
          "internalType": "uint256",
          "name": "gigId",
          "type": "uint256"
        },
        {
          "internalType": "address",
          "name": "freelancer",
          "type": "address"
        }
      ],
      "name": "selectFreelancer",
      "outputs": [],
      "stateMutability": "nonpayable",
      "type": "function"
    },
    {
      "inputs": [
        {
          "internalType": "uint256",
          "name": "newFeePercent",
          "type": "uint256"
        }
      ],
      "name": "setPlatformFee",
      "outputs": [],
      "stateMutability": "nonpayable",
      "type": "function"
    },
    {
      "inputs": [
        {
          "internalType": "uint256",
          "name": "newGracePeriod",
          "type": "uint256"
        }
      ],
      "name": "setStakingGracePeriod",
      "outputs": [],
      "stateMutability": "nonpayable",
      "type": "function"
    },
    {
      "inputs": [],
      "name": "stakingGracePeriod",
      "outputs": [
        {
          "internalType": "uint256",
          "name": "",
          "type": "uint256"
        }
      ],
      "stateMutability": "view",
      "type": "function"
    },
    {
      "inputs": [
        {
          "internalType": "uint256",
          "name": "gigId",
          "type": "uint256"
        },
        {
          "internalType": "string",
          "name": "proposalUri",
          "type": "string"
        }
      ],
      "name": "submitProposal",
      "outputs": [],
      "stateMutability": "nonpayable",
      "type": "function"
    },
    {
      "inputs": [
        {
          "internalType": "address",
          "name": "newOwner",
          "type": "address"
        }
      ],
      "name": "transferOwnership",
      "outputs": [],
      "stateMutability": "nonpayable",
      "type": "function"
    },
    {
      "inputs": [
        {
          "internalType": "uint256",
          "name": "gigId",
          "type": "uint256"
        },
        {
          "internalType": "string",
          "name": "newProposalUri",
          "type": "string"
        }
      ],
      "name": "updateProposal",
      "outputs": [],
      "stateMutability": "nonpayable",
      "type": "function"
    },
    {
      "inputs": [
        {
          "internalType": "uint256",
          "name": "gigId",
          "type": "uint256"
        }
      ],
      "name": "withdrawProposal",
      "outputs": [],
      "stateMutability": "nonpayable",
      "type": "function"
    },
    {
      "stateMutability": "payable",
      "type": "receive"
    }
  ],
  "bytecode": "0x608060405260fa600455620151806005553480156200001d57600080fd5b506040516200550b3803806200550b8339810160408190526200004091620000c8565b6001600055620000503362000076565b600280546001600160a01b0319166001600160a01b0392909216919091179055620000fa565b600180546001600160a01b038381166001600160a01b0319831681179093556040519116919082907f8be0079c531659141344cd1fd0a4f28419497f9722a3daafe3b4186f6b6457e090600090a35050565b600060208284031215620000db57600080fd5b81516001600160a01b0381168114620000f357600080fd5b9392505050565b615401806200010a6000396000f3fe6080604052600436106102605760003560e01c80638c639a8511610144578063bf8ca1aa116100b6578063ee1fc32f1161007a578063ee1fc32f1461082b578063f2fde38b1461084b578063fac210e91461086b578063fb4d229a1461088b578063fb99b35d146108ab578063fcd0bc8d146108cb57600080fd5b8063bf8ca1aa146107a3578063cb82cc8f146107c3578063db2e21bc146107d6578063e1f02ffa146107eb578063ec4275e81461080b57600080fd5b806396b3dfff1161010857806396b3dfff1461062657806396e7dfe6146106535780639f2b05d414610673578063a7274c4314610693578063a72b6325146106b3578063bd0df132146106e057600080fd5b80638c639a85146105925780638d8a83c3146105a85780638da5cb5b146105c85780638de8616f146105e6578063915ba48a1461060657600080fd5b80635153d4e1116101dd5780636cf5d86e116101a15780636cf5d86e146104bd578063715018a6146104ea578063752430df146104ff5780637d68ddcc146105325780637f05d3781461055257806388685cd91461057257600080fd5b80635153d4e1146103dd57806354e5e62c146104155780636213e5ea14610435578063664ae5d214610462578063668c6cbb1461049d57600080fd5b8063336e50a611610224578063336e50a6146103275780633689e9161461035a578063380deabc146103705780633d01e0fa1461039057806340a7ea08146103b057600080fd5b806312e8e2c31461026c578063208f55641461028e578063223e6f1b146102c3578063230aac55146102e75780632d1fdef61461030757600080fd5b3661026757005b600080fd5b34801561027857600080fd5b5061028c610287366004614993565b6108eb565b005b34801561029a57600080fd5b506102ae6102a9366004614993565b610947565b60405190151581526020015b60405180910390f35b3480156102cf57600080fd5b506102d960055481565b6040519081526020016102ba565b3480156102f357600080fd5b5061028c6103023660046149f5565b610c37565b34801561031357600080fd5b5061028c610322366004614a41565b610f7b565b34801561033357600080fd5b50610347610342366004614993565b61115e565b6040516102ba9796959493929190614aa9565b34801561036657600080fd5b506102d960035481565b34801561037c57600080fd5b5061028c61038b366004614b2f565b61133b565b34801561039c57600080fd5b5061028c6103ab366004614993565b6115cc565b3480156103bc57600080fd5b506103d06103cb366004614b5b565b6117f6565b6040516102ba9190614b7d565b3480156103e957600080fd5b506103fd6103f8366004614a41565b611862565b6040516001600160a01b0390911681526020016102ba565b34801561042157600080fd5b5061028c610430366004614bb5565b61189a565b34801561044157600080fd5b50610455610450366004614993565b611dc8565b6040516102ba9190614cda565b34801561046e57600080fd5b506102ae61047d366004614b2f565b600960209081526000928352604080842090915290825290205460ff1681565b3480156104a957600080fd5b506103d06104b8366004614b5b565b612157565b3480156104c957600080fd5b506104dd6104d8366004614993565b6121c1565b6040516102ba9190614d3c565b3480156104f657600080fd5b5061028c612250565b34801561050b57600080fd5b5061051f61051a366004614b2f565b612264565b6040516102ba9796959493929190614d7d565b34801561053e57600080fd5b506104dd61054d366004614993565b612347565b34801561055e57600080fd5b5061028c61056d366004614993565b612580565b34801561057e57600080fd5b5061028c61058d366004614993565b6125fc565b34801561059e57600080fd5b506102d960045481565b3480156105b457600080fd5b5061028c6105c33660046149f5565b612999565b3480156105d457600080fd5b506001546001600160a01b03166103fd565b3480156105f257600080fd5b5061028c610601366004614993565b612c48565b34801561061257600080fd5b506102ae610621366004614993565b612f8d565b34801561063257600080fd5b50610646610641366004614993565b61306e565b6040516102ba9190614dcf565b34801561065f57600080fd5b506102d961066e366004614f00565b6134c7565b34801561067f57600080fd5b5061028c61068e3660046149f5565b6134f8565b34801561069f57600080fd5b506102ae6106ae366004614993565b6136f3565b3480156106bf57600080fd5b506106d36106ce366004614b2f565b613730565b6040516102ba9190614f2a565b3480156106ec57600080fd5b506107566106fb366004614993565b60076020526000908152604090208054600182015460028301546003909301546001600160a01b0383169360ff600160a01b8504811694600160a81b8104821694600160b01b8204831694600160b81b909204909216929088565b604080516001600160a01b03909916895296151560208901529415159587019590955291151560608601521515608085015260a084015260c083019190915260e0820152610100016102ba565b3480156107af57600080fd5b506104556107be366004614993565b6138f3565b61028c6107d1366004614993565b613b80565b3480156107e257600080fd5b5061028c613dd0565b3480156107f757600080fd5b5061028c610806366004614993565b613f24565b34801561081757600080fd5b506102ae610826366004614b2f565b6140c5565b34801561083757600080fd5b5061028c610846366004614993565b6143f0565b34801561085757600080fd5b5061028c610866366004614b5b565b6145d4565b34801561087757600080fd5b506102d9610886366004614f00565b61464d565b34801561089757600080fd5b506102d96108a6366004614993565b614669565b3480156108b757600080fd5b506102ae6108c6366004614993565b6146a4565b3480156108d757600080fd5b506002546103fd906001600160a01b031681565b6108f361476e565b6103e88111156109425760405162461bcd60e51b81526020600482015260156024820152744665652063616e6e6f74206578636565642031302560581b60448201526064015b60405180910390fd5b600455565b600081600354811061096b5760405162461bcd60e51b815260040161093990614f3d565b600083815260076020908152604080832081516101008101835281546001600160a01b03808216835260ff600160a01b83048116151584880152600160a81b83048116151584870152600160b01b8304811615156060850152600160b81b9092049091161515608083015260018084015460a0840152600284015460c084015260039093015460e080840191909152898752600686528487208551918201909552845490911681529183018054919594929392840191610a2a90614f69565b80601f0160208091040260200160405190810160405280929190818152602001828054610a5690614f69565b8015610aa35780601f10610a7857610100808354040283529160200191610aa3565b820191906000526020600020905b815481529060010190602001808311610a8657829003601f168201915b50505050508152602001600282018054610abc90614f69565b80601f0160208091040260200160405190810160405280929190818152602001828054610ae890614f69565b8015610b355780601f10610b0a57610100808354040283529160200191610b35565b820191906000526020600020905b815481529060010190602001808311610b1857829003601f168201915b50505050508152602001600382018054610b4e90614f69565b80601f0160208091040260200160405190810160405280929190818152602001828054610b7a90614f69565b8015610bc75780601f10610b9c57610100808354040283529160200191610bc7565b820191906000526020600020905b815481529060010190602001808311610baa57829003601f168201915b5050509183525050600482015460208201526005820154604082015260069091015460609091015282519091506001600160a01b031615801590610c0d57508160600151155b8015610c1d575060008160a00151115b8015610c2c57508160e0015142115b935050505b50919050565b826003548110610c595760405162461bcd60e51b815260040161093990614f3d565b6000848152600760209081526040808320600690925290912081546001600160a01b031615610c9a5760405162461bcd60e51b815260040161093990614f9d565b80546001600160a01b03163303610cf35760405162461bcd60e51b815260206004820152601e60248201527f436c69656e742063616e6e6f74206170706c7920746f206f776e2067696700006044820152606401610939565b81600201544210610d165760405162461bcd60e51b815260040161093990614fd4565b83610d635760405162461bcd60e51b815260206004820152601c60248201527f50726f706f73616c205552492063616e6e6f7420626520656d707479000000006044820152606401610939565b600086815260096020908152604080832033845290915290205460ff1615610dd75760405162461bcd60e51b815260206004820152602160248201527f43616e6e6f742072652d70726f706f7365206f6e207468652073616d652067696044820152606760f81b6064820152608401610939565b60008681526008602090815260408083208054600181810183559185528385200180546001600160a01b031916339081179091558a855260098452828520818652845293829020805460ff19169091179055805160e0810182529283528051601f880183900483028101830190915286815282820191889088908190840183828082843760009201829052509385525050426020808501829052604080860192909252606085018490526080850184905260a09094018390528a8352600a84528083203384528452909120835181546001600160a01b0319166001600160a01b0390911617815591830151600183019150610ed2908261506f565b5060408281015160028301556060830151600383015560808301516004909201805460a085015160c0909501511515620100000262ff0000199515156101000261ff00199515159590951661ffff199092169190911793909317939093169190911790915551339087907fba63161e1c7e096aaf63cb63b137eeea26b870df0007c6e2ad029bae55d6517990610f6b9089908990615158565b60405180910390a3505050505050565b816003548110610f9d5760405162461bcd60e51b815260040161093990614f3d565b600082118015610fae5750605a8211155b610ffa5760405162461bcd60e51b815260206004820152601c60248201527f4164646974696f6e616c2064617973206d75737420626520312d3930000000006044820152606401610939565b60008381526007602052604090208054600160b81b900460ff16156110615760405162461bcd60e51b815260206004820152601b60248201527f43616e6e6f7420657874656e6420636f6d706c657465642067696700000000006044820152606401610939565b6000848152600660205260409020546001600160a01b031633148061108f575080546001600160a01b031633145b806110a457506001546001600160a01b031633145b6110fa5760405162461bcd60e51b815260206004820152602160248201527f4e6f7420617574686f72697a656420746f20657874656e6420646561646c696e6044820152606560f81b6064820152608401610939565b60006111098462015180615182565b8260010154611118919061519f565b6001830181905560405181815290915085907f073d5fd87a7e0c2a384727f9aab2e84826370623aba582638b425a417e799a2c9060200160405180910390a25050505050565b600660205260009081526040902080546001820180546001600160a01b03909216929161118a90614f69565b80601f01602080910402602001604051908101604052809291908181526020018280546111b690614f69565b80156112035780601f106111d857610100808354040283529160200191611203565b820191906000526020600020905b8154815290600101906020018083116111e657829003601f168201915b50505050509080600201805461121890614f69565b80601f016020809104026020016040519081016040528092919081815260200182805461124490614f69565b80156112915780601f1061126657610100808354040283529160200191611291565b820191906000526020600020905b81548152906001019060200180831161127457829003601f168201915b5050505050908060030180546112a690614f69565b80601f01602080910402602001604051908101604052809291908181526020018280546112d290614f69565b801561131f5780601f106112f45761010080835404028352916020019161131f565b820191906000526020600020905b81548152906001019060200180831161130257829003601f168201915b5050505050908060040154908060050154908060060154905087565b81600354811061135d5760405162461bcd60e51b815260040161093990614f3d565b60008381526006602052604090205483906001600160a01b031633146113955760405162461bcd60e51b8152600401610939906151b2565b600084815260076020526040902080546001600160a01b0316156113cb5760405162461bcd60e51b815260040161093990614f9d565b60008581526009602090815260408083206001600160a01b038816845290915290205460ff166114495760405162461bcd60e51b815260206004820152602360248201527f4164647265737320686173206e6f74206170706c69656420746f20746869732060448201526267696760e81b6064820152608401610939565b8060020154421061149c5760405162461bcd60e51b815260206004820152601960248201527f53656c656374696f6e20646561646c696e6520706173736564000000000000006044820152606401610939565b6000858152600a602090815260408083206001600160a01b038816845290915290206004810154610100900460ff161561152b5760405162461bcd60e51b815260206004820152602a60248201527f53656c656374656420667265656c616e636572206861732077697468647261776044820152691b881c1c9bdc1bdcd85b60b21b6064820152608401610939565b81546001600160a01b0319166001600160a01b038616178255600554611551904261519f565b600383019081556001600160a01b0386166000818152600c60209081526040808320805460018082018355918552938390209093018b905560048601805460ff191690931790925592549051908152909188917fba05c38d28e2e6022a8f924642d334448e5d8af223b5ae9585baad3d0ce776ec9101610f6b565b8060035481106115ee5760405162461bcd60e51b815260040161093990614f3d565b60008281526006602052604090205482906001600160a01b031633146116265760405162461bcd60e51b8152600401610939906151b2565b6000838152600760209081526040808320600690925290912081546001600160a01b03166116665760405162461bcd60e51b8152600401610939906151f5565b8154600160a81b900460ff166116af5760405162461bcd60e51b815260206004820152600e60248201526d11da59c81b9bdd08199d5b99195960921b6044820152606401610939565b8154600160a01b900460ff16156117005760405162461bcd60e51b815260206004820152601560248201527415dbdc9ac8185b1c9958591e48185c1c1c9bdd9959605a1b6044820152606401610939565b8154600160b81b900460ff16156117515760405162461bcd60e51b815260206004820152601560248201527411da59c8185b1c9958591e4818dbdb5c1b195d1959605a1b6044820152606401610939565b6005810154156117b3578154600160b01b900460ff166117b35760405162461bcd60e51b815260206004820152601c60248201527f5265717569726564207374616b65206e6f74206465706f7369746564000000006044820152606401610939565b815460ff60a01b1916600160a01b17825560405185907fe021b70c90c04cb1a4fae9fbcf358044aab6b86f01086a2af93b8e5c33abc2b690600090a25050505050565b6001600160a01b0381166000908152600b602090815260409182902080548351818402810184019094528084526060939283018282801561185657602002820191906000526020600020905b815481526020019060010190808311611842575b50505050509050919050565b6008602052816000526040600020818154811061187e57600080fd5b6000918252602090912001546001600160a01b03169150829050565b886118df5760405162461bcd60e51b81526020600482015260156024820152745469746c652063616e6e6f7420626520656d70747960581b6044820152606401610939565b8661192c5760405162461bcd60e51b815260206004820152601b60248201527f4465736372697074696f6e2063616e6e6f7420626520656d70747900000000006044820152606401610939565b846119795760405162461bcd60e51b815260206004820152601b60248201527f44657461696c73205552492063616e6e6f7420626520656d70747900000000006044820152606401610939565b600084116119d75760405162461bcd60e51b815260206004820152602560248201527f5061796d656e7420616d6f756e74206d75737420626520677265617465722074604482015264068616e20360dc1b6064820152608401610939565b6000821180156119e9575061016d8211155b611a415760405162461bcd60e51b815260206004820152602360248201527f4475726174696f6e206d757374206265206265747765656e20312d333635206460448201526261797360e81b6064820152608401610939565b600081118015611a515750818111155b611aba5760405162461bcd60e51b815260206004820152603460248201527f50726f706f73616c206475726174696f6e206d757374206265206265747765656044820152733710189030b7321033b4b390323ab930ba34b7b760611b6064820152608401610939565b6000611ac98362015180615182565b611ad3904261519f565b90506000611ae48362015180615182565b611aee904261519f565b90506040518060e00160405280336001600160a01b031681526020018d8d8080601f016020809104026020016040519081016040528093929190818152602001838380828437600092019190915250505090825250604080516020601f8e018190048102820181019092528c815291810191908d908d9081908401838280828437600092019190915250505090825250604080516020601f8c018190048102820181019092528a815291810191908b908b9081908401838280828437600092018290525093855250505060208083018a905260408084018a905242606090940193909352600354825260068152919020825181546001600160a01b0319166001600160a01b03909116178155908201516001820190611c0d908261506f565b5060408201516002820190611c22908261506f565b5060608201516003820190611c37908261506f565b50608082810151600483015560a080840151600584015560c093840151600690930192909255604080516101008101825260008082526020808301828152838501838152606085018481529685018481529785018b81529885018a815260e086018581526003805487526007865288872097518854955194519a519b511515600160b81b0260ff60b81b199c1515600160b01b0260ff60b01b199c1515600160a81b029c909c1661ffff60a81b19961515600160a01b026001600160a81b03199098166001600160a01b039390931692909217969096179490941693909317989098179890981691909117845596516001848101919091559551600284015593519186019190915533808252600b84528282208654815496870182559083529390912090930191909155915491519091907f7df0eea79dda16ef2c7677a086ab6420fe7f14b809f831dbfac441a8a444450490611d9d908a90879087908f908f90615225565b60405180910390a360038054906000611db583615256565b9190505550505050505050505050505050565b6060816003548110611dec5760405162461bcd60e51b815260040161093990614f3d565b600083815260086020908152604080832080548251818502810185019093528083529192909190830182828015611e4c57602002820191906000526020600020905b81546001600160a01b03168152600190910190602001808311611e2e575b505050505090506000805b8251811015611ee457600a60008781526020019081526020016000206000848381518110611e8757611e8761526f565b60200260200101516001600160a01b03166001600160a01b0316815260200190815260200160002060040160019054906101000a900460ff16611ed25781611ece81615256565b9250505b80611edc81615256565b915050611e57565b5060008167ffffffffffffffff811115611f0057611f0061500b565b604051908082528060200260200182016040528015611f3957816020015b611f26614947565b815260200190600190039081611f1e5790505b5090506000805b845181101561214b57600a60008981526020019081526020016000206000868381518110611f7057611f7061526f565b60200260200101516001600160a01b03166001600160a01b0316815260200190815260200160002060040160019054906101000a900460ff1661213957600a60008981526020019081526020016000206000868381518110611fd457611fd461526f565b60200260200101516001600160a01b03166001600160a01b031681526020019081526020016000206040518060e00160405290816000820160009054906101000a90046001600160a01b03166001600160a01b03166001600160a01b0316815260200160018201805461204690614f69565b80601f016020809104026020016040519081016040528092919081815260200182805461207290614f69565b80156120bf5780601f10612094576101008083540402835291602001916120bf565b820191906000526020600020905b8154815290600101906020018083116120a257829003601f168201915b5050509183525050600282015460208201526003820154604082015260049091015460ff8082161515606084015261010082048116151560808401526201000090910416151560a090910152835184908490811061211f5761211f61526f565b6020026020010181905250818061213590615256565b9250505b8061214381615256565b915050611f40565b50909695505050505050565b6001600160a01b0381166000908152600c602090815260409182902080548351818402810184019094528084526060939283018282801561185657602002820191906000526020600020908154815260200190600101908083116118425750505050509050919050565b60608160035481106121e55760405162461bcd60e51b815260040161093990614f3d565b6000838152600860209081526040918290208054835181840281018401909452808452909183018282801561224357602002820191906000526020600020905b81546001600160a01b03168152600190910190602001808311612225575b5050505050915050919050565b61225861476e565b61226260006147c8565b565b600a602090815260009283526040808420909152908252902080546001820180546001600160a01b03909216929161229b90614f69565b80601f01602080910402602001604051908101604052809291908181526020018280546122c790614f69565b80156123145780601f106122e957610100808354040283529160200191612314565b820191906000526020600020905b8154815290600101906020018083116122f757829003601f168201915b505050600284015460038501546004909501549394909390925060ff808216925061010082048116916201000090041687565b606081600354811061236b5760405162461bcd60e51b815260040161093990614f3d565b6000838152600860209081526040808320805482518185028101850190935280835291929091908301828280156123cb57602002820191906000526020600020905b81546001600160a01b031681526001909101906020018083116123ad575b505050505090506000805b825181101561246357600a600087815260200190815260200160002060008483815181106124065761240661526f565b60200260200101516001600160a01b03166001600160a01b0316815260200190815260200160002060040160019054906101000a900460ff16612451578161244d81615256565b9250505b8061245b81615256565b9150506123d6565b5060008167ffffffffffffffff81111561247f5761247f61500b565b6040519080825280602002602001820160405280156124a8578160200160208202803683370190505b5090506000805b845181101561214b57600a600089815260200190815260200160002060008683815181106124df576124df61526f565b60200260200101516001600160a01b03166001600160a01b0316815260200190815260200160002060040160019054906101000a900460ff1661256e5784818151811061252e5761252e61526f565b60200260200101518383815181106125485761254861526f565b6001600160a01b03909216602092830291909101909101528161256a81615256565b9250505b8061257881615256565b9150506124af565b61258861476e565b610e10811015801561259d575062093a808111155b6125f75760405162461bcd60e51b815260206004820152602560248201527f477261636520706572696f64206d757374206265203120686f757220746f2037604482015264206461797360d81b6064820152608401610939565b600555565b80600354811061261e5760405162461bcd60e51b815260040161093990614f3d565b61262661481a565b600082815260076020908152604080832060069092529091208154600160a01b900460ff1661268f5760405162461bcd60e51b815260206004820152601560248201527415dbdc9ac81b9bdd08185c1c1c9bdd9959081e595d605a1b6044820152606401610939565b8154600160b81b900460ff16156126e85760405162461bcd60e51b815260206004820152601860248201527f5061796d656e7420616c72656164792072656c656173656400000000000000006044820152606401610939565b815460048083015490546001600160a01b03909216916000906127109061270f9084615182565b6127199190615285565b9050600061272782846152a7565b865460ff60b81b1916600160b81b17875560025460405163a9059cbb60e01b81526001600160a01b0387811660048301526024820184905292935091169063a9059cbb906044016020604051808303816000875af115801561278d573d6000803e3d6000fd5b505050506040513d601f19601f820116820180604052508101906127b191906152ba565b6127fd5760405162461bcd60e51b815260206004820152601f60248201527f467265656c616e6365722055534454207472616e73666572206661696c6564006044820152606401610939565b81156128e3576002546001600160a01b031663a9059cbb6128266001546001600160a01b031690565b6040516001600160e01b031960e084901b1681526001600160a01b039091166004820152602481018590526044016020604051808303816000875af1158015612873573d6000803e3d6000fd5b505050506040513d601f19601f8201168201806040525081019061289791906152ba565b6128e35760405162461bcd60e51b815260206004820152601c60248201527f506c6174666f726d20666565207472616e73666572206661696c6564000000006044820152606401610939565b600085600501541180156128ff57508554600160b01b900460ff165b1561293f5760058501546040516001600160a01b0386169180156108fc02916000818181858888f1935050505015801561293d573d6000803e3d6000fd5b505b60408051828152602081018490526001600160a01b038616918a917f5fee043a0db2f303c5be0b8f554d0f9e91efc1e74fe501166969ffc487e3b25b910160405180910390a35050505050506129956001600055565b5050565b8260035481106129bb5760405162461bcd60e51b815260040161093990614f3d565b60008481526006602052604090205484906001600160a01b031633146129f35760405162461bcd60e51b8152600401610939906151b2565b6129fb61481a565b600085815260076020908152604080832060069092529091208154600160a01b900460ff1615612a6d5760405162461bcd60e51b815260206004820152601b60248201527f43616e6e6f742063616e63656c20617070726f76656420776f726b00000000006044820152606401610939565b8154600160b81b900460ff1615612ac65760405162461bcd60e51b815260206004820152601b60248201527f43616e6e6f742063616e63656c20636f6d706c657465642067696700000000006044820152606401610939565b8154600160a81b900460ff1615612b9857600254815460048084015460405163a9059cbb60e01b81526001600160a01b0393841692810192909252602482015291169063a9059cbb906044016020604051808303816000875af1158015612b31573d6000803e3d6000fd5b505050506040513d601f19601f82011682018060405250810190612b5591906152ba565b612b985760405162461bcd60e51b815260206004820152601460248201527310db1a595b9d081c99599d5b990819985a5b195960621b6044820152606401610939565b8154600160b01b900460ff1615612be857815460058201546040516001600160a01b039092169181156108fc0291906000818181858888f19350505050158015612be6573d6000803e3d6000fd5b505b815460ff60b81b1916600160b81b17825560405187907fde16467f674e1c0aec377bc23d886c597e8180a75d92ff1832953f89ae72eeda90612c2d9089908990615158565b60405180910390a25050612c416001600055565b5050505050565b806003548110612c6a5760405162461bcd60e51b815260040161093990614f3d565b60008281526006602052604090205482906001600160a01b03163314612ca25760405162461bcd60e51b8152600401610939906151b2565b612caa61481a565b600083815260076020908152604080832060069092529091208154600160a81b900460ff1615612d115760405162461bcd60e51b815260206004820152601260248201527111da59c8185b1c9958591e48199d5b99195960721b6044820152606401610939565b81546001600160a01b0316612d385760405162461bcd60e51b8152600401610939906151f5565b600581015415612da3578154600160b01b900460ff1680612d5d575081600301544211155b612da35760405162461bcd60e51b815260206004820152601760248201527614dd185ada5b99c8191958591b1a5b99481c185cdcd959604a1b6044820152606401610939565b6004818101546002546040516370a0823160e01b8152339381019390935290916001600160a01b03909116906370a0823190602401602060405180830381865afa158015612df5573d6000803e3d6000fd5b505050506040513d601f19601f82011682018060405250810190612e1991906152dc565b1015612e675760405162461bcd60e51b815260206004820152601960248201527f496e73756666696369656e7420555344542062616c616e6365000000000000006044820152606401610939565b6002546004828101546040516323b872dd60e01b8152339281019290925230602483015260448201526001600160a01b03909116906323b872dd906064016020604051808303816000875af1158015612ec4573d6000803e3d6000fd5b505050506040513d601f19601f82011682018060405250810190612ee891906152ba565b612f2b5760405162461bcd60e51b81526020600482015260146024820152731554d115081d1c985b9cd9995c8819985a5b195960621b6044820152606401610939565b815460ff60a81b1916600160a81b178255600481015460405186917fbf2c8ab5d55b8d8031b89556d55a3217f24046a98b4f5f510bbf8423ce238a8a91612f7491815260200190565b60405180910390a25050612f886001600055565b505050565b6000816003548110612fb15760405162461bcd60e51b815260040161093990614f3d565b60008381526007602090815260409182902082516101008101845281546001600160a01b038116825260ff600160a01b82048116151594830194909452600160a81b81048416151594820194909452600160b01b8404831615156060820152600160b81b90930490911615801560808401819052600183015460a0850152600283015460c085015260039092015460e084015290613057575080516001600160a01b0316155b801561306657508060c0015142105b949350505050565b613101604051806101e0016040528060006001600160a01b03168152602001606081526020016060815260200160608152602001600081526020016000815260200160006001600160a01b03168152602001600015158152602001600015158152602001600015158152602001600015158152602001600081526020016000815260200160008152602001600081525090565b8160035481106131235760405162461bcd60e51b815260040161093990614f3d565b6000838152600660209081526040808320815160e0810190925280546001600160a01b03168252600181018054929391929184019161316190614f69565b80601f016020809104026020016040519081016040528092919081815260200182805461318d90614f69565b80156131da5780601f106131af576101008083540402835291602001916131da565b820191906000526020600020905b8154815290600101906020018083116131bd57829003601f168201915b505050505081526020016002820180546131f390614f69565b80601f016020809104026020016040519081016040528092919081815260200182805461321f90614f69565b801561326c5780601f106132415761010080835404028352916020019161326c565b820191906000526020600020905b81548152906001019060200180831161324f57829003601f168201915b5050505050815260200160038201805461328590614f69565b80601f01602080910402602001604051908101604052809291908181526020018280546132b190614f69565b80156132fe5780601f106132d3576101008083540402835291602001916132fe565b820191906000526020600020905b8154815290600101906020018083116132e157829003601f168201915b5050505050815260200160048201548152602001600582015481526020016006820154815250509050600060076000868152602001908152602001600020604051806101000160405290816000820160009054906101000a90046001600160a01b03166001600160a01b03166001600160a01b031681526020016000820160149054906101000a900460ff161515151581526020016000820160159054906101000a900460ff161515151581526020016000820160169054906101000a900460ff161515151581526020016000820160179054906101000a900460ff1615151515815260200160018201548152602001600282015481526020016003820154815250509050604051806101e0016040528083600001516001600160a01b03168152602001836020015181526020018360400151815260200183606001518152602001836080015181526020018360a00151815260200182600001516001600160a01b031681526020018260200151151581526020018260400151151581526020018260600151151581526020018260800151151581526020018260a0015181526020018260c0015181526020018260e0015181526020018360c001518152509350505050919050565b600b60205281600052604060002081815481106134e357600080fd5b90600052602060002001600091509150505481565b82600354811061351a5760405162461bcd60e51b815260040161093990614f3d565b600084815260076020526040902080546001600160a01b0316156135505760405162461bcd60e51b815260040161093990614f9d565b600085815260096020908152604080832033845290915290205460ff166135c45760405162461bcd60e51b815260206004820152602260248201527f4d757374207375626d697420696e697469616c2070726f706f73616c206669726044820152611cdd60f21b6064820152608401610939565b806002015442106135e75760405162461bcd60e51b815260040161093990614fd4565b826136345760405162461bcd60e51b815260206004820152601c60248201527f50726f706f73616c205552492063616e6e6f7420626520656d707479000000006044820152606401610939565b6000858152600a6020908152604080832033845290915290206004810154610100900460ff16156136a75760405162461bcd60e51b815260206004820181905260248201527f43616e6e6f74207570646174652077697468647261776e2070726f706f73616c6044820152606401610939565b600181016136b68587836152f5565b50426003820155604051339087907f23cb3120654bdbea0f9952bf1e5359e6e37aa7c5054aa482fe742654c93fdfff90610f6b9089908990615158565b60008160035481106137175760405162461bcd60e51b815260040161093990614f3d565b5050600090815260066020526040902060050154151590565b613738614947565b82600354811061375a5760405162461bcd60e51b815260040161093990614f3d565b60008481526009602090815260408083206001600160a01b038716845290915290205460ff166137dc5760405162461bcd60e51b815260206004820152602760248201527f467265656c616e63657220686173206e6f74207375626d6974746564206120706044820152661c9bdc1bdcd85b60ca1b6064820152608401610939565b6000848152600a602090815260408083206001600160a01b03808816855290835292819020815160e081019092528054909316815260018301805491939284019161382690614f69565b80601f016020809104026020016040519081016040528092919081815260200182805461385290614f69565b801561389f5780601f106138745761010080835404028352916020019161389f565b820191906000526020600020905b81548152906001019060200180831161388257829003601f168201915b5050509183525050600282015460208201526003820154604082015260049091015460ff8082161515606084015261010082048116151560808401526201000090910416151560a090910152949350505050565b60608160035481106139175760405162461bcd60e51b815260040161093990614f3d565b60008381526008602090815260408083208054825181850281018501909352808352919290919083018282801561397757602002820191906000526020600020905b81546001600160a01b03168152600190910190602001808311613959575b5050505050905060008151905060008167ffffffffffffffff81111561399f5761399f61500b565b6040519080825280602002602001820160405280156139d857816020015b6139c5614947565b8152602001906001900390816139bd5790505b50905060005b82811015613b7657600a60008881526020019081526020016000206000858381518110613a0d57613a0d61526f565b60200260200101516001600160a01b03166001600160a01b031681526020019081526020016000206040518060e00160405290816000820160009054906101000a90046001600160a01b03166001600160a01b03166001600160a01b03168152602001600182018054613a7f90614f69565b80601f0160208091040260200160405190810160405280929190818152602001828054613aab90614f69565b8015613af85780601f10613acd57610100808354040283529160200191613af8565b820191906000526020600020905b815481529060010190602001808311613adb57829003601f168201915b5050509183525050600282015460208201526003820154604082015260049091015460ff8082161515606084015261010082048116151560808401526201000090910416151560a0909101528251839083908110613b5857613b5861526f565b60200260200101819052508080613b6e90615256565b9150506139de565b5095945050505050565b806003548110613ba25760405162461bcd60e51b815260040161093990614f3d565b60008281526007602052604090205482906001600160a01b03163314613c235760405162461bcd60e51b815260206004820152603060248201527f4f6e6c792073656c656374656420667265656c616e6365722063616e2070657260448201526f3337b936903a3434b99030b1ba34b7b760811b6064820152608401610939565b600083815260076020908152604080832060069092529091206005810154613c8d5760405162461bcd60e51b815260206004820152601e60248201527f4e6f207374616b6520726571756972656420666f7220746869732067696700006044820152606401610939565b8154600160b01b900460ff1615613ce05760405162461bcd60e51b815260206004820152601760248201527614dd185ad948185b1c9958591e4819195c1bdcda5d1959604a1b6044820152606401610939565b80600501543414613d2c5760405162461bcd60e51b8152602060048201526016602482015275125b98dbdc9c9958dd081cdd185ad948185b5bdd5b9d60521b6044820152606401610939565b8160030154421115613d7a5760405162461bcd60e51b815260206004820152601760248201527614dd185ada5b99c8191958591b1a5b99481c185cdcd959604a1b6044820152606401610939565b815460ff60b01b1916600160b01b178255604051339086907f4297eb34ce0f5cba5434e9e5bc90ff09dc76e8c53521965282b3b31bc2dcc4bc90613dc19034815260200190565b60405180910390a35050505050565b613dd861476e565b6002546040516370a0823160e01b81523060048201526000916001600160a01b0316906370a0823190602401602060405180830381865afa158015613e21573d6000803e3d6000fd5b505050506040513d601f19601f82011682018060405250810190613e4591906152dc565b90508015613ee3576002546001600160a01b031663a9059cbb613e706001546001600160a01b031690565b6040516001600160e01b031960e084901b1681526001600160a01b039091166004820152602481018490526044016020604051808303816000875af1158015613ebd573d6000803e3d6000fd5b505050506040513d601f19601f82011682018060405250810190613ee191906152ba565b505b478015612995576001546040516001600160a01b039091169082156108fc029083906000818181858888f19350505050158015612f88573d6000803e3d6000fd5b806003548110613f465760405162461bcd60e51b815260040161093990614f3d565b600082815260076020526040902080546001600160a01b031615613f7c5760405162461bcd60e51b815260040161093990614f9d565b600083815260096020908152604080832033845290915290205460ff16613fe55760405162461bcd60e51b815260206004820152601760248201527f4e6f2070726f706f73616c20746f2077697468647261770000000000000000006044820152606401610939565b806002015442106140085760405162461bcd60e51b815260040161093990614fd4565b6000838152600a6020908152604080832033845290915290206004810154610100900460ff161561407b5760405162461bcd60e51b815260206004820152601a60248201527f50726f706f73616c20616c72656164792077697468647261776e0000000000006044820152606401610939565b60048101805461ff001916610100179055426003820155604051339085907f227963be52ff8a07c7da3b18de57749070333730ee5489bc9c414a467e5425cf90600090a350505050565b60008260035481106140e95760405162461bcd60e51b815260040161093990614f3d565b600084815260076020908152604080832081516101008101835281546001600160a01b03808216835260ff600160a01b83048116151584880152600160a81b83048116151584870152600160b01b8304811615156060850152600160b81b9092049091161515608083015260018084015460a0840152600284015460c084015260039093015460e0808401919091528a87526006865284872085519182019095528454909116815291830180549195949293928401916141a890614f69565b80601f01602080910402602001604051908101604052809291908181526020018280546141d490614f69565b80156142215780601f106141f657610100808354040283529160200191614221565b820191906000526020600020905b81548152906001019060200180831161420457829003601f168201915b5050505050815260200160028201805461423a90614f69565b80601f016020809104026020016040519081016040528092919081815260200182805461426690614f69565b80156142b35780601f10614288576101008083540402835291602001916142b3565b820191906000526020600020905b81548152906001019060200180831161429657829003601f168201915b505050505081526020016003820180546142cc90614f69565b80601f01602080910402602001604051908101604052809291908181526020018280546142f890614f69565b80156143455780601f1061431a57610100808354040283529160200191614345565b820191906000526020600020905b81548152906001019060200180831161432857829003601f168201915b5050509183525050600482015460208083019190915260058301546040808401919091526006909301546060909201919091526000898152600982528281206001600160a01b038a168252909152205490915060ff161580156143b5575080516001600160a01b03868116911614155b80156143c9575081516001600160a01b0316155b80156143d857508160c0015142105b80156143e657508160800151155b9695505050505050565b8060035481106144125760405162461bcd60e51b815260040161093990614f3d565b6000828152600760209081526040808320600690925290912081546001600160a01b03166144525760405162461bcd60e51b8152600401610939906151f5565b8154600160b01b900460ff16156144a55760405162461bcd60e51b815260206004820152601760248201527614dd185ad948185b1c9958591e4819195c1bdcda5d1959604a1b6044820152606401610939565b60008160050154116144ed5760405162461bcd60e51b8152602060048201526011602482015270139bc81cdd185ad9481c995c5d5a5c9959607a1b6044820152606401610939565b816003015442116145405760405162461bcd60e51b815260206004820152601b60248201527f5374616b696e6720646561646c696e65206e6f742070617373656400000000006044820152606401610939565b81546001600160a01b031981168355600060038401819055858152600a602090815260408083206001600160a01b03909416808452939091529020600401805462ff00001916620100001790556145978186614873565b6040516001600160a01b0382169086907f87c776cdadf6d51d06c09c85fe2974a4e0da8977557e4ece317e4ba27283428b90600090a35050505050565b6145dc61476e565b6001600160a01b0381166146415760405162461bcd60e51b815260206004820152602660248201527f4f776e61626c653a206e6577206f776e657220697320746865207a65726f206160448201526564647265737360d01b6064820152608401610939565b61464a816147c8565b50565b600c60205281600052604060002081815481106134e357600080fd5b600081600354811061468d5760405162461bcd60e51b815260040161093990614f3d565b505060009081526007602052604090206003015490565b60008160035481106146c85760405162461bcd60e51b815260040161093990614f3d565b60008381526007602090815260409182902082516101008101845281546001600160a01b038116825260ff600160a01b82048116151594830194909452600160a81b81048416151594820194909452600160b01b8404831615156060820152600160b81b90930490911615801560808401819052600183015460a0850152600283015460c085015260039092015460e084015290613066575060a0015142109392505050565b6001546001600160a01b031633146122625760405162461bcd60e51b815260206004820181905260248201527f4f776e61626c653a2063616c6c6572206973206e6f7420746865206f776e65726044820152606401610939565b600180546001600160a01b038381166001600160a01b0319831681179093556040519116919082907f8be0079c531659141344cd1fd0a4f28419497f9722a3daafe3b4186f6b6457e090600090a35050565b60026000540361486c5760405162461bcd60e51b815260206004820152601f60248201527f5265656e7472616e637947756172643a207265656e7472616e742063616c6c006044820152606401610939565b6002600055565b6001600160a01b0382166000908152600c60205260408120905b815481101561494157828282815481106148a9576148a961526f565b90600052602060002001540361492f57815482906148c9906001906152a7565b815481106148d9576148d961526f565b90600052602060002001548282815481106148f6576148f661526f565b906000526020600020018190555081805480614914576149146153b5565b60019003818190600052602060002001600090559055614941565b8061493981615256565b91505061488d565b50505050565b6040518060e0016040528060006001600160a01b031681526020016060815260200160008152602001600081526020016000151581526020016000151581526020016000151581525090565b6000602082840312156149a557600080fd5b5035919050565b60008083601f8401126149be57600080fd5b50813567ffffffffffffffff8111156149d657600080fd5b6020830191508360208285010111156149ee57600080fd5b9250929050565b600080600060408486031215614a0a57600080fd5b83359250602084013567ffffffffffffffff811115614a2857600080fd5b614a34868287016149ac565b9497909650939450505050565b60008060408385031215614a5457600080fd5b50508035926020909101359150565b6000815180845260005b81811015614a8957602081850181015186830182015201614a6d565b506000602082860101526020601f19601f83011685010191505092915050565b6001600160a01b038816815260e060208201819052600090614acd90830189614a63565b8281036040840152614adf8189614a63565b90508281036060840152614af38188614a63565b6080840196909652505060a081019290925260c090910152949350505050565b80356001600160a01b0381168114614b2a57600080fd5b919050565b60008060408385031215614b4257600080fd5b82359150614b5260208401614b13565b90509250929050565b600060208284031215614b6d57600080fd5b614b7682614b13565b9392505050565b6020808252825182820181905260009190848201906040850190845b8181101561214b57835183529284019291840191600101614b99565b60008060008060008060008060008060e08b8d031215614bd457600080fd5b8a3567ffffffffffffffff80821115614bec57600080fd5b614bf88e838f016149ac565b909c509a5060208d0135915080821115614c1157600080fd5b614c1d8e838f016149ac565b909a50985060408d0135915080821115614c3657600080fd5b50614c438d828e016149ac565b9b9e9a9d50989b979a98996060890135986080810135985060a0810135975060c0013595509350505050565b60018060a01b0381511682526000602082015160e06020850152614c9660e0850182614a63565b9050604083015160408501526060830151606085015260808301511515608085015260a0830151151560a085015260c0830151151560c08501528091505092915050565b6000602080830181845280855180835260408601915060408160051b870101925083870160005b82811015614d2f57603f19888603018452614d1d858351614c6f565b94509285019290850190600101614d01565b5092979650505050505050565b6020808252825182820181905260009190848201906040850190845b8181101561214b5783516001600160a01b031683529284019291840191600101614d58565b6001600160a01b038816815260e060208201819052600090614da190830189614a63565b60408301979097525060608101949094529115156080840152151560a0830152151560c09091015292915050565b60208152614de96020820183516001600160a01b03169052565b600060208301516101e0806040850152614e07610200850183614a63565b91506040850151601f1980868503016060870152614e258483614a63565b9350606087015191508086850301608087015250614e438382614a63565b925050608085015160a085015260a085015160c085015260c0850151614e7460e08601826001600160a01b03169052565b5060e0850151610100614e8a8187018315159052565b8601519050610120614e9f8682018315159052565b8601519050610140614eb48682018315159052565b8601519050610160614ec98682018315159052565b860151610180868101919091528601516101a0808701919091528601516101c0808701919091529095015193019290925250919050565b60008060408385031215614f1357600080fd5b614f1c83614b13565b946020939093013593505050565b602081526000614b766020830184614c6f565b60208082526012908201527111da59c8191bd95cc81b9bdd08195e1a5cdd60721b604082015260600190565b600181811c90821680614f7d57607f821691505b602082108103610c3157634e487b7160e01b600052602260045260246000fd5b6020808252601b908201527f467265656c616e63657220616c72656164792073656c65637465640000000000604082015260600190565b60208082526018908201527f50726f706f73616c20646561646c696e65207061737365640000000000000000604082015260600190565b634e487b7160e01b600052604160045260246000fd5b601f821115612f8857600081815260208120601f850160051c810160208610156150485750805b601f850160051c820191505b8181101561506757828155600101615054565b505050505050565b815167ffffffffffffffff8111156150895761508961500b565b61509d816150978454614f69565b84615021565b602080601f8311600181146150d257600084156150ba5750858301515b600019600386901b1c1916600185901b178555615067565b600085815260208120601f198616915b82811015615101578886015182559484019460019091019084016150e2565b508582101561511f5787850151600019600388901b60f8161c191681555b5050505050600190811b01905550565b81835281816020850137506000828201602090810191909152601f909101601f19169091010190565b60208152600061306660208301848661512f565b634e487b7160e01b600052601160045260246000fd5b80820281158282048414176151995761519961516c565b92915050565b808201808211156151995761519961516c565b60208082526023908201527f4f6e6c7920636c69656e742063616e20706572666f726d20746869732061637460408201526234b7b760e91b606082015260800190565b602080825260169082015275139bc8199c99595b185b98d95c881cd95b1958dd195960521b604082015260600190565b85815284602082015283604082015260806060820152600061524b60808301848661512f565b979650505050505050565b6000600182016152685761526861516c565b5060010190565b634e487b7160e01b600052603260045260246000fd5b6000826152a257634e487b7160e01b600052601260045260246000fd5b500490565b818103818111156151995761519961516c565b6000602082840312156152cc57600080fd5b81518015158114614b7657600080fd5b6000602082840312156152ee57600080fd5b5051919050565b67ffffffffffffffff83111561530d5761530d61500b565b6153218361531b8354614f69565b83615021565b6000601f841160018114615355576000851561533d5750838201355b600019600387901b1c1916600186901b178355612c41565b600083815260209020601f19861690835b828110156153865786850135825560209485019460019092019101615366565b50868210156153a35760001960f88860031b161c19848701351681555b505060018560011b0183555050505050565b634e487b7160e01b600052603160045260246000fdfea26469706673582212200f5626b502ef738d75848b0abdc5b06a0abeeb35b2c9182de144f502dd6912ad64736f6c63430008130033",
  "linkReferences": {},
  "deployedLinkReferences": {}
}